:100256005389F0438901758A66758CFCC28DD28CF0
:07026600D2AFD2A9C2B922F8
:10026D001108C0F9A4B0999282F880908883C6A134
:03027D00868EFF6B
:1001DE00EF24FE600904700AD290C2918004C2908E
:1001EE00D29174082DF8E6F5807F017E001202226E
:0401FE007580FF22E7
:0A022200EF1FAC0670011E4C6011C6
:0F022C0000000075250B7526BED526FDD525FAD9
:03023B0080E52239
:07000300D2AFD2A8D288227F
:10023E00E4FF20B4010F20B5027F0220B6027F0337
:07024E0020B7027F047E00CF
:010255002286
:10016B0085222112023E8F22AF217E00EF640170A7
:10017B0007E5227003752301EF64024E7007E52239
:10018B007003752302E52164037007E52270037584
:0F019B002303E52164047007E522700375230434
:0101AA002232
:05029400AF23E4F52397
:010299002242
:07028D00D2AFD2AAD28A22EF
:03028000011F005B
:10010400120256120284E51B64017004AF1F8019A9
:10011400E51B6402701BE51E651D6007C37418951A
:100124001FF51FC37418951FFF120202751C01806E
:10013400D2E51B64037013E51E651D6003E4F51F1F
:10014400E4F51CAF1F12020280B9E51B640470B30E
:10015400E51E651D6003E4F51FE4F51CC3741895E2
:070164001FFF120202809C44
:03000B0002009A56
:10009A00C0E0C0F0C083C082C0D075D000C000C02C
:0D00AA0001C002C003C004C005C006C007AD
:1000B700758A66758CFC051AE51A70020519120116
:1000C7006BE51AB4E81CE519B40317751900751A1E
:1000D70000E51C6401700B051FE51F75F019848589
:0200E700F01F08
:1000E900D007D006D005D004D003D002D001D0006B
:0B00F900D0D0D082D083D0F0D0E03215
:09028400851B1D1201AB8F1E2227
:1001AB001202948F207E00EF64017005751B018095
:1001BB001FEF64024E7005751B028014EF64034E33
:1001CB007005751B038009EF64044E7003751B04E7
:0301DB00AF1B2235
:100202008F24E52475F00A84FD7C007F011201DE53
:10021200E52475F00A84E5F0FD7C007F020201DE30
:0300000002000EED
:0C000E00787FE4F6D8FD758126020055CD
:10001A00020104E493A3F8E493A34003F68001F2F7
:10002A0008DFF48029E493A3F85407240CC8C333E7
:10003A00C4540F4420C8834004F456800146F6DFB6
:10004A00E4800B010204081020408090026DE47ED7
:10005A00019360BCA3FF543F30E509541FFEE493AB
:10006A00A360010ECF54C025E060A840B8E493A372
:10007A00FAE493A3F8E493A3C8C582C8CAC583CA9D
:10008A00F0A3C8C582C8CAC583CADFE9DEE780BE55
:01028300007A
:00000001FF
