:100003003C42A98585A9423C3C42A98585A9423C3D
:100013003C42A58585A5423C3C42A58585A5423C3D
:100023003C42A58989A5423C3C42A58989A5423C1D
:1000330000FF080808FF000E1515150A00FE010150
:100043000200FE010102001E21211E00000000002B
:100053000000000000000000102054FF5556001C53
:1000630014FF141C00000810240201FF00201008D4
:1000730000212224A87A292A2C20004345495161D2
:100083000041221408142241000000000000000077
:10009300E4F50AC3E50A9408748094805014E50AD1
:1000A300250890000393FD7C00AF0A120105050AA1
:1000B30080E10509E509640A70D6F5097408250885
:0A00C300F508642870CAF50880C62D
:0A012700EF1FAC0670011E4C6011C2
:0F013100000000750D0B750EBED50EFDD50DFA35
:0301400080E52235
:05014F00C2B6C2B5229A
:1000CD00AD07E4F50BF50C7E007480A80C088006D6
:1000DD00CEA2E713CE13D8F8FFEDFBEF5B24FF9212
:1000ED00B4D2B6C2B6050CE50C7002050B6408451A
:0800FD000B70D4D2B5C2B5228C
:10010500AA07AF051200CDAF02A8077480088002C8
:10011500C313D8FCF4F5807F017E0012012775809A
:02012500FF22B7
:03000000020143B7
:0C014300787FE4F6D8FD75810E02009371
:00000001FF
