:100003007D3C7C00E4FF1200857D427C007F011271
:1000130000857DAD7C007F021200857D837C007F9F
:10002300031200857D837C007F041200857DAD7CF7
:10003300007F051200857D427C007F061200857DCE
:0A0043003C7C007F0712008580B6A8
:0A00A700EF1FAC0670011E4C601143
:0F00B100000000750A0B750BBED50BFDD50AFAC2
:0300C00080E522B6
:0500CF00C2B6C2B5221B
:10004D00AD07E4F508F5097E007480A8090880065F
:10005D00CEA2E713CE13D8F8FFEDFBEF5B24FF9292
:10006D00B4D2B6C2B60509E50970020508640845A3
:08007D000870D4D2B5C2B5220F
:10008500AA07AF0512004DAF02A8077480088002C9
:10009500C313D8FCF4F5807F017E001200A775809C
:0200A500FF2238
:030000000200C338
:0C00C300787FE4F6D8FD75810B02000385
:00000001FF
