:100A1B00543A0054483A00544C3A002E004F563A80
:0C0A2B0048004F563A4C002020202000CC
:10046D00120A82E4FF12086E8F0F7F0112086E8F41
:10047D000AAF0FEF3395E0FED3EF947DEE648094D9
:10048D0080501EAF0AEF3395E0FEC3EF94C9EE64C2
:10049D0080947F400CE50A6480F8E50F64809850E5
:1004AD0006750F1E750A0F120A997BFF7A0A791BC2
:1004BD007D017F0112095E7BFF7A0A791E7D017F26
:1004CD000212095E7BFF7A0A79227D097F021209E9
:1004DD005EE50FFB3395E0FA7519037D047F02127B
:1004ED000744E50AFB3395E0FA7519037D0C7F028D
:1004FD00120744120B088F10120ABC12089E8F0EA1
:10050D008E0D8D0C8C0BE4FFFEFDFCAB0EAA0DA920
:10051D000CA80B1201B4501E7B2D7D037F01120A16
:10052D00EBAF0EAE0DAD0CAC0B12022D8F148E1366
:10053D008D128C1180157B2B7D037F01120AEB85AB
:10054D000E14850D13850C12850B11AF14AE13AD62
:10055D0012AC1112027CAB07AA067519037D047F3C
:10056D00011209167BFF7A0A79267D077F01120990
:10057D005EE4FFFE7DC87C42AB14AA13A912A8113C
:10058D0012000E12027CE47B64FAF9F81203CD75A9
:10059D0019027D087F01120916E5106064FF7E00C7
:1005AD0064017017050FAD0FED3395E0FCC3ED94AD
:1005BD007DEC648094804003750F7DEF64024E7076
:1005CD0011150FD3E50A6480F8E50F648098500289
:1005DD00050FE51064037011050AC3E50F6480F87B
:1005ED00E50A6480984002150AE51064047012153E
:1005FD000AAF0AEF3395E0FEBEFF06BFC903750AC9
:10060D00C9E50FFB3395E0FA7519037D047F0212DE
:10061D000744E50AFB3395E0FA7519037D0C7F025B
:10062D00120744E50FFD3395E0FCE4FF12093A7F14
:10063D00057E00120A37E50AFD3395E0FC7F0112B5
:10064D00093A7F057E00120A37AC0FEC120248AB57
:10065D000EAA0DA90CA80B1201B4600A40087BFF6D
:10066D007A0A79288019AC0AEC120248AB0EAA0D51
:10067D00A90CA80B1201B450107BFF7A0A792D7DBD
:10068D000C7F0112095E0205007BFF7A0A79327D2B
:09069D000C7F0112095E02050048
:03000B000206A644
:1006A600C0E0C0F0C083C082C0D075D000C000C01A
:0D06B60001C002C003C004C005C006C0079B
:1006C300758A66758CFC0509E509700205086414D2
:0B06D30045087007F508F50912078EB6
:1006DE00D007D006D005D004D003D002D001D00070
:0B06EE00D0D0D082D083D0F0D0E0321A
:0A0A3700EF1FAC0670011E4C6011A9
:0F0A410000000075150B7516BED516FDD515FAFC
:030A500080E5221C
:0D0ABC001209DF7FCC1209817F44020981FD
:10089E001209DF7FCC1209817FBE1209811208F086
:1008AE008F151208F0EFFEE515FFFDAC06EC1202F7
:0B08BE0043E4FBFA7980784102011747
:060AAD00C2A58F80D2A754
:080AB3007F027EEFDEFEDFFC96
:010ABB002218
:0A0AE100C2A6120AADC2A7020AB3B2
:1009A300CFCDCFCECCCE12033C7C007D0A12033CCC
:0409B300ED2430FF00
:0A09B700D2A6120AADC2A7020AB3CD
:1009C100AE07EEFB7A0064017004ED148009EB645C
:0E09D100024A7009ED243F4480FF120AE12221
:100A99007F38120AE17F0C120AE17F06120AE17F10
:040AA90001020AE15B
:0A0AEB00AC031209C1AF040209B701
:06095E008B158A168917B3
:100964001209C1E4FDAB15AA16A9178D827583007F
:0C0974001202FDFF60061209B70D80E9B9
:010980002254
:0A083D00EF24FFFDEE34FFFC7F0AFC
:080847008E1C8F1D8C1E8D1FFD
:10084F007F017E00E4FBEBC3951FE51E6480F87407
:0E085F008098500AAC1CAD1D12032A0B80E8D5
:01086D002268
:040916008A178B1899
:10091A001209C1AA19EAFF7E00D394007480948058
:0F092A00400D12083DAC17AD181209A31A80E654
:01093900229B
:040744008B828A8397
:100748001209C1C3E58364809480400D7F2B120990
:10075800B785831A85821B80107F2D1209B7C3E4E1
:100768009582F51BE49583F51AAA19EAFF7E00D352
:10077800940074809480400D12083DAC1AAD1B1291
:0507880009A31A80E640
:01078D002249
:0406F9008A228B23A3
:1006FD001209C1AA24EAD39400748094804037EA89
:10070D0024FFFDE434FFFC7F107E00120847AC226D
:10071D00AD23CFCDCFCECCCE12033CEF540FFEC3C5
:10072D00940A74809480EE5004243080022437FFA4
:06073D001209B71A80BF8B
:010743002293
:0407CE008A278B28C3
:1007D2001209C1AA29EAFF7E00D394007480948092
:1007E2004026EF24FFFDEE34FFFC7F02120847ACE7
:1007F20027AD28CFCDCFCECCCE12033CEF5401246F
:0808020030FF1209B71A80CD86
:01080A0022CB
:1009DF00C2AFD2B7C2B77FE3DFFED2B77F1EDFFE53
:0D09EF00A2B7E433FE7FE3DFFED2AFAF0618
:0109FC0022D8
:100A6B00C2AFC2B7007E04DEFEEF24FF92B77E1743
:060A7B00DEFED2B7D2AF8F
:010A81002252
:1009FD00C2AFC2B7007F01DFFED2B7007F01DFFEBD
:0D0A0D00A2B7E433FE7F17DFFED2AFAF06C5
:010A1A0022B9
:02098100AD07C0
:10098300E4FCECC39408748094805013A8047401AD
:0F099300088002C333D8FC5DFF120A6B0C80E3AF
:0109A2002232
:1008F000E4FDFCECC394087480948050161209FD4A
:10090000EF600DA8047401088002C333D8FC4205CF
:050910000C80E0AF05C2
:0109150022BF
:10093A008F158C168D17120AFF7FA012080B120A48
:10094A00C9AF1512080B120AC9AF1712080B120AFF
:04095A00C9020003CB
:02086E008F15E4
:10087000120AFF7FA012080B120AC9AF1512080B4B
:10088000120AC9120AFF7FA112080B120AC9120824
:0D089000C98F167F01120AF5120003AF1682
:01089D002238
:090AFF00D2A1D2A0C2A0C2A12222
:07000300C2A0D2A1D2A0228D
:02080B00AD0737
:10080D00E4FBEBC394087480948050237E007480C5
:10081D00A803088006CEA2E713CE13D8F8FFEDF596
:0F082D0082EF558224FF92A0D2A1C2A10B80D3EB
:01083C002299
:1008C900E4FFD2A0FEEEC39408748094805017D23E
:1008D900A130A00DA8067480088002C313D8FC4279
:0608E90007C2A10E80DF32
:0108EF0022E6
:0A0AF500EF24FF92A0D2A1C2A122BB
:0B0AC900D2A0D2A1A2A0E433FFC2A182
:010AD40022FF
:100A5300E4FF20B1010F20B0027F0220B2027F0326
:070A630020B3027F047E00B6
:010A6A002269
:10078E00852B2A120A538F2BAF2A7E00EF7009E5B4
:10079E002B64017003752C01EF4E7009E52B64027A
:1007AE007003752C02E52A7009E52B64037003753E
:0F07BE002C03E52A7009E52B64047003752C04E5
:0107CD002209
:050B0800AF2CE4F52C08
:010B0D0022C5
:100A82005389F0438901758A66758CFCC28DD28CBC
:070A9200D2AFD2A9C2B922C4
:10000E00EC4D6011E8497017ED33EC3304600DE4EC
:10001E00FCFFFEFD22E933E8330470F80202E81219
:10002E0002B358046009E4CC24815006285009021A
:10003E0002F22840030202EFC0E0EB4A7044B9809E
:10004E0006D0E0FB0202DEEF4E701CBD8008EBFF17
:10005E00EAFEE9FD80EBE98DF0A4FEE5F00200F783
:10006E00E9CDF9EAFEEBFFEF89F0A4FCE5F0CE89CD
:10007E00F0A42EFFE435F0CD89F0A42DFEE435F08A
:10008E008067EF4E7005BD80D780C3EF8BF0A4ACB8
:10009E00F0EE8BF0A42CFCE435F0F8EF8AF0A42CF3
:1000AE00E5F038FCE433CB8DF0A42CFCE5F03BF806
:1000BE00EE8AF0A42CFCE5F038F8E433CF89F0A4F6
:1000CE002CFCE5F038CF3400CE89F0A42FFFE5F0FC
:1000DE003EFEE433C98DF0A42EFEE5F039CD8AF054
:1000EE00A42FFFE5F03EFEE43DFD33D0E0FB5007CC
:1000FE000BBB000F0202F2EC2CFCEF33FFEE33FED3
:06010E00ED33FD0202CA00
:100114000202F2EC5D046005E8590470030202E88F
:100124001202B3580460F6EC4860F2EC7004FDFE71
:10013400FF22C860DB2481C85009C39860025006BE
:100144000202EF9850CAF582E9294B4A7005AB8246
:100154000202DE75F0007C1A7880C3EF9BEE9AED04
:1001640099400DC3EF9BFFEE9AFEED99FDE842F036
:10017400DC23ACF0D0E0FFD0E0FED0E0FDAB822089
:10018400E7101BEB60BAEC2CFCEF33FFEE33FEED13
:1001940033FD0202CAE803F830E705C0F075F00049
:1001A400EF2FFFEE33FEED33FD40B830E7C280AAF7
:1001B40074F8CC6480CCC86480C8F58204604FC3F2
:1001C400EB9FF5F0EA9E42F0E99D42F0E89C45F091
:1001D400603C501DE5825FFFE582D313CB5BCBF41B
:1001E4002B5582FB50280ABA002409B90020088044
:1001F4001DE5825BFBE582D313CF5FCFF4C3132FDE
:100204005582FF50090EBE00050DBD00010CC3EB65
:100214009FF5F0EA9E42F0E99D42F0E89C45F060CB
:0902240007CC4820E701B3EC22ED
:10022D00ED33EC33600A047003BD8004ECB2E7FCDF
:01023D00229E
:10023E0075F020800E75F010800575F0087D007E3B
:10024E00007F003392D530D50312045FEC3340109B
:10025E00EF33FFEE33FEED33FDEC33FCD5F0ED2244
:0E026E00E5F0247EA2D513CC92E7CDCEFF2280
:10027C00EDD2E7CD33EC3392D524814006E4FFFE7A
:10028C00FDFC22FCE4CFCECDCC24E0501174FF80D9
:10029C00EDC3CC13CCCD13CDCE13CECF13CF047076
:0702AC00F030D5DE02045F13
:1002B300E9D2E7C933E833F892D5EDD2E7CD33EC91
:0702C30033FC5002B2D5220A
:1002CA00EC30E7100FBF000C0EBE00080DBD000495
:1002DA000BEB6014A2D5EB13FCED92E7FD2274FF41
:1002EA00FCFDFEFF22E480F8A2D574FF13FC7D809A
:0302FA00E480EFAE
:03000000020AD51C
:0C0AD500787FE4F6D8FD75812D02046DD9
:1002FD00BB010CE58229F582E5833AF583E02250B6
:10030D0006E92582F8E622BBFE06E92582F8E222FF
:0D031D00E58229F582E5833AF583E4932219
:10032A00EF8DF0A4A8F0CF8CF0A428CE8DF0A42EE7
:02033A00FE22A1
:10033C00BC000BBE0029EF8DF084FFADF022E4CCA5
:10034C00F875F008EF2FFFEE33FEEC33FCEE9DEC6E
:10035C00984005FCEE9DFE0FD5F0E9E4CEFD22EDB4
:10036C00F8F5F0EE8420D21CFEADF075F008EF2FFE
:10037C00FFED33FD4007985006D5F0F222C398FDEF
:05038C000FD5F0EA228C
:1003910075F008758200EF2FFFEE33FECD33CDCC23
:1003A10033CCC58233C5829BED9AEC99E5829840A6
:1003B1000CF582EE9BFEED9AFDEC99FC0FD5F0D683
:1003C100E4CEFBE4CDFAE4CCF9A88222B800C1B9AD
:1003D1000059BA002DEC8BF084CFCECDFCE5F0CBEB
:1003E100F97818EF2FFFEE33FEED33FDEC33FCEB24
:1003F10033FB10D703994004EB99FB0FD8E5E4F9DF
:10040100FA227818EF2FFFEE33FEED33FDEC33FCCB
:10041100C933C910D7059BE99A4007EC9BFCE99ABF
:10042100F90FD8E0E4C9FAE4CCFB2275F010EF2F04
:10043100FFEE33FEED33FDCC33CCC833C810D70704
:100441009BEC9AE899400AED9BFDEC9AFCE899F83F
:0E0451000FD5F0DAE4CDFBE4CCFAE4C8F922D2
:0E045F00C3E49FFFE49EFEE49DFDE49CFC22AE
:00000001FF
