:1000FC007D017C007F0812008F7D027C007F07123F
:10010C00008F7D037C007F0612008F7D077C007FB3
:10011C000512008F7D057C007F0412008F7D087C0A
:08012C00007F0312008F80C860
:0A013400EF1FAC0670011E4C6011B5
:0F013E0000000075190B751ABED51AFDD519FAF8
:03014D0080E52228
:1001500011083F065B4F666D7D077F6F777C395EC8
:03016000797100B2
:10008F00EF14B4080050549000A475F003A4C58376
:10009F0025F0C583730200E40200DC0200D40200E5
:1000AF00CC0200C80200C40200C00200BCD2A4806F
:1000BF000ED2A48012D2A48016D2A4801AC2A4D2C7
:1000CF00A3D2A28016C2A4D2A3C2A2800EC2A4C27F
:1000DF00A3D2A28006C2A4C2A3C2A274082DF8E6BE
:0D00EF00F5807F017E00120134E4F5A022AF
:03000000020003F8
:0C000300787FE4F6D8FD75811A02004AEF
:10000F000200FCE493A3F8E493A34003F68001F20B
:10001F0008DFF48029E493A3F85407240CC8C333F2
:10002F00C4540F4420C8834004F456800146F6DFC1
:10003F00E4800B0102040810204080900150E47E00
:10004F00019360BCA3FF543F30E509541FFEE493B6
:10005F00A360010ECF54C025E060A840B8E493A37D
:10006F00FAE493A3F8E493A3C8C582C8CAC583CAA8
:10007F00F0A3C8C582C8CAC583CADFE9DEE780BE60
:01016300009B
:00000001FF
