:0A04C500EF1FAC0670011E4C601121
:0F04CF00000000750A0B750BBED50BFDD50AFAA0
:0304DE0080E52294
:06050B00C2A58F80D2A7FB
:080511007F027EEFDEFEDFFC3D
:0105190022BF
:0A052600C2A612050BC2A7020511C0
:10048900CFCDCFCECCCE1202EA7C007D0A1202EA91
:04049900ED2430FF1F
:0A049D00D2A612050BC2A70205113A
:1004A700AE07EEFB7A0064017004ED148009EB647B
:0E04B700024A7009ED243F4480FF1205262200
:1004F7007F381205267F0C1205267F061205267FF8
:0405070001020526C2
:0A053000AC031204A7AF0402049DFF
:060466008B088A09890AD7
:10046C001204A7E4FDAB08AA09A90A8D82758300C2
:0C047C001202ABFF600612049D0D80E927
:010488002251
:0A041100EF24FFFDEE34FFFC7F0A2C
:08041B008E0D8F0E8C0F8D1069
:100423007F017E00E4FBEBC39510E50F6480F87455
:0E0433008098500AAC0DAD0E1202D80B80E876
:010441002298
:040442008A0A8B0B8C
:100446001204A7AA0CEAFF7E00D39400748094805D
:0F045600400D120411AC0AAD0B1204891A80E696
:010465002274
:04038A008B828A8355
:10038E001204A7C3E58364809480400D7F2B120472
:10039E009D85831685821780107F2D12049DC3E4E0
:1003AE009582F517E49583F516AA15EAFF7E00D31C
:1003BE00940074809480400D120411AC16AD171287
:0503CE0004891A80E61D
:0103D3002207
:04033F008A1A8B1B70
:100343001204A7AA1CEAD39400748094804037EA6D
:1003530024FFFDE434FFFC7F107E0012041BAC1A63
:10036300AD1BCFCDCFCECCCE1202EAEF540FFEC3DE
:10037300940A74809480EE5004243080022437FF62
:0603830012049D1A80BF68
:010389002251
:0403D4008A1F8B20D1
:1003D8001204A7AA21EAFF7E00D3940074809480B7
:1003E8004026EF24FFFDEE34FFFC7F0212041BAC15
:1003F8001FAD20CFCDCFCECCCE1202EAEF540124D0
:0804080030FF12049D1A80CDA3
:0104100022C9
:1004E10050617373776F72643A006F6B2000202044
:0604F1002000657272009C
:1001C0001204F77BFF7A0479E17D017F0112046656
:1001D0001200038F26E52660F7D3940A748094807A
:1001E0005041C3E5239404E52294005036AE24AF79
:1001F000257C007D0A1202D88E248F25E52675F015
:100200000A84E5F02525F525E43524F5240523E5C4
:100210002370020522750C04AB25AA247D017F0200
:10022000120442E526640B7060E52564297004E53C
:100230002464097BFF701C7A0479EB7D0E7F011228
:100240000466E4F522F523F524F5257FC8FE1204A3
:10025000C5801B7A0479F37D0E7F011204667FC886
:100260007E001204C5E4F522F523F524F5257BFF75
:100270007A0479EF7D0E7F01120466750C04AB25BC
:10028000AA247D017F02120442E526640C60030269
:1002900001D0F524F525F522F523750C04AB25AA2C
:0B02A000247D017F021204420201D005
:10000300E4F508F5097590FFC2902094167F14FE5D
:100013001204C53094FD7F147E001204C5750800D8
:100023007509102095177F147E001204C53095FDC5
:100033007F147E001204C575080075090C209617FD
:100043007F147E001204C53096FD7F147E001204D7
:10005300C57508007509082097177F147E001204E0
:10006300C53097FD7F147E001204C575080075091D
:10007300047590FFC2912094177F147E001204C56B
:100083003094FD7F147E001204C575080075090FB6
:100093002095177F147E001204C53095FD7F147ED2
:1000A300001204C575080075090B2096177F147E8E
:1000B300001204C53096FD7F147E001204C5750836
:1000C300007509072097177F147E001204C5309727
:1000D300FD7F147E001204C5750800750903759031
:1000E300FFC2922094177F147E001204C53094FD42
:1000F3007F147E001204C575080075090E2095173C
:100103007F147E001204C53095FD7F147E00120417
:10011300C575080075090A2096177F147E0012041E
:10012300C53096FD7F147E001204C575080075095D
:10013300062097177F147E001204C53097FD7F14A5
:100143007E001204C57508007509027590FFC293FD
:100153002094177F147E001204C53094FD7F147E13
:10016300001204C575080075090D2095177F147ECC
:10017300001204C53095FD7F147E001204C5750876
:10018300007509092096177F147E001204C5309666
:10019300FD7F147E001204C57508007509052097BC
:1001A300177F147E001204C53097FD7F147E001262
:0C01B30004C5750800750901AE08AF090D
:0101BF00221D
:0300000002051ADC
:0C051A00787FE4F6D8FD7581260201C050
:1002AB00BB010CE58229F582E5833AF583E0225008
:1002BB0006E92582F8E622BBFE06E92582F8E22252
:0D02CB00E58229F582E5833AF583E493226C
:1002D800EF8DF0A4A8F0CF8CF0A428CE8DF0A42E3A
:0202E800FE22F4
:1002EA00BC000BBE0029EF8DF084FFADF022E4CCF8
:1002FA00F875F008EF2FFFEE33FEEC33FCEE9DECC1
:10030A00984005FCEE9DFE0FD5F0E9E4CEFD22ED06
:10031A00F8F5F0EE8420D21CFEADF075F008EF2F50
:10032A00FFED33FD4007985006D5F0F222C398FD41
:05033A000FD5F0EA22DE
:00000001FF
