:1003160061736468657274797561646664676600A2
:1000CD001202EF7B5C7D017F0112034B7B7E7D0273
:1000DD007F0112034B7BFF7A0379167D107F01128E
:1000ED00028E750C037BEA7A007D057F01120229D1
:1000FD00750C037BEA7A007D017F02120135750CC8
:10010D00027B8E7A007D057F0212019B750C087BA8
:10011D008E7A007D087F021201EC7F181203417F59
:08012D00C87E001202D380F22B
:06032600C2A58F80D2A7E2
:08032C007F0B7EBEDEFEDFFC4C
:0103340022A6
:0A034100C2A6120326C2A702032C75
:1002B100AD0E7C00CFCDCFCECCCE1200977C007D91
:0802C1000A120097ED2430FF42
:0A02C900D2A6120326C2A702032CDE
:1002EF007F381203417F0C1203417F061203417FB7
:0402FF0001020341B4
:10030300EF64017004ED148003ED243F4480FF1279
:0303130003412281
:0A034B00AC03120303AF040202C961
:06028E008B088A09890AB1
:10029400120303E4FDAB08AA09A90A8D8275830041
:0C02A400120003FF60061202C90D80E981
:0102B000222B
:0A025D00EF24FFFDEE34FFFC7F0AE2
:080267008E0F8F108C118D1217
:10026F007F017E00E4FBEBC39512E5116480F87407
:0E027F008098500AAC0FAD101200300B80E8D2
:01028D00224E
:040229008A0A8B0BA7
:10022D00120303AA0CEAFF7E00D39400748094801D
:10023D00401D12025DAC0AAD0BCFCDCFCECCCE1290
:0F024D0000427C007D0A1200421202C51A80D6C0
:01025C00227F
:080135008F088D098A0A8B0B6B
:10013D00120303C3E50A6480948040277B2BAD092D
:10014D00AF0812034B850B0E850C0DAF0D7E00D342
:10015D00EF940074809480403412025D1202B11548
:10016D000D80E87B2DAD09AF0812034BE50BF404B0
:10017D00F50E850C0DAF0D7E00D3EF9400748094B9
:0D018D0080400A12025D1202B1150D80E8DB
:01019A002242
:04019B008A0A8B0B36
:10019F00120303AA0CEAD3940074809480403DEAC2
:1001AF0024FFFDE434FFFC7F107E00120267AC0ACF
:1001BF00AD0BCFCDCFCECCCE1200977C007D1012E1
:1001CF000097AE05EEC3940A74809480EE50042419
:0C01DF003080022437FF1202C91A80B9D8
:0101EB0022F1
:0401EC008A0A8B0BE5
:1001F000120303AA0CEAFF7E00D39400748094805B
:100200004026EF24FFFDEE34FFFC7F02120267ACB4
:100210000AAD0BCFCDCFCECCCE120042EF5401248D
:0802200030FF1202C91A80CD63
:0102280022B3
:0A02D300EF1FAC0670011E4C601115
:0F02DD0000000075080B7509BED509FDD508FA9C
:0302EC0080E52288
:03000000020335C3
:0C033500787FE4F6D8FD7581120200CD3F
:10000300BB010CE58229F582E5833AF583E02250B2
:1000130006E92582F8E622BBFE06E92582F8E222FC
:0D002300E58229F582E5833AF583E4932216
:10003000EF8DF0A4A8F0CF8CF0A428CE8DF0A42EE4
:02004000FE229E
:10004200BC000BBE0029EF8DF084FFADF022E4CCA2
:10005200F875F008EF2FFFEE33FEEC33FCEE9DEC6B
:10006200984005FCEE9DFE0FD5F0E9E4CEFD22EDB1
:10007200F8F5F0EE8420D21CFEADF075F008EF2FFB
:10008200FFED33FD4007985006D5F0F222C398FDEC
:050092000FD5F0EA2289
:10009700C2D5EC30E709B2D5E4C39DFDE49CFCEE84
:1000A70030E715B2D5E4C39FFFE49EFE120042C3BA
:1000B700E49DFDE49CFC800312004230D507C3E4B5
:0600C7009FFFE49EFE22F3
:00000001FF
