:0F068E00012700011E0001251701243B0126381A
:1001E0007D107C007F0812054C120728120425128E
:1001F000037EAF237E00EF640A700CE51E70047D61
:100200000180027D008D1EE51E70E1EF640E4E70D0
:100210000B0527E52764077003752701AF27EF64F7
:10022000016005EF64027016E51FFD7C00C3940AAF
:1002300074809480504D7B007A0079258042AF27EE
:10024000EF64036005EF64047016E51FFD7C00C3D6
:10025000940A74809480502B7B007A00792480204B
:10026000AF27EF64056005EF64067017E51FFD7C9E
:1002700000C3940A7480948050097B007A00792628
:10028000120620D3E5259417748094804005E4F588
:1002900025F51FC3E524943C748094804003E4F565
:1002A00024C3E526943C7480948050030201ECE45E
:0502B000F5260201EC3F
:10062000AF27EF6401600AEF64036005EF640570B3
:100630001112066375F00A84AFF0ED75F00AA42F6D
:10064000801DAF27EF6402600AEF64046005EF6469
:1006500006700F12066375F00A8475F00AA42D1255
:03066000067C22F3
:03000B000202B539
:1002B500C0E0C0F0C083C082C0D075D000C000C00F
:0D02C50001C002C003C004C005C006C00790
:1002D200758A66758CFC051BE51B7002051A648421
:1002E2007004E51A64037064F51AF51BE51E6401D7
:1002F200705AAF1FFEEF640B70200526E526643CA2
:10030200704AF5260524E524643C7040F524052551
:10031200E52564187036F5258032EF640C4E7020A6
:100322001526E526F4702575263B1524E524F47080
:100332001B75243B1525E525F47011752517800CD6
:10034200E51F640D7006F525F524F526051DE51D4E
:100352007002051C6414451C7007F51CF51D120083
:010362000E8C
:10036300D007D006D005D004D003D002D001D000EE
:0B037300D0D0D082D083D0F0D0E03298
:100425001200038F237E00EF64017004751F012203
:10043500EF64024E7004751F0222EF64034E7004D0
:10044500751F0322EF64044E7004751F0422EF64C8
:10045500054E7004751F0522EF64064E7004751F66
:100465000622EF64074E7004751F0722EF64084EDD
:100475007004751F0822EF64094E7004751F092268
:10048500EF640B4E7004751F0B22EF640C4E700465
:10049500751F0C22EF640D4E7004751F0D22EF645D
:1004A5000E4E7004751F0E22EF640F4E7004751FFB
:0B04B5000F22EF64104E7002F51F22B2
:100105007D117C007F0312054C7D117C007F06125A
:10011500054CE51E640170030201D6E51E6003026D
:1001250001DFAF27EF64016005EF6402702D052044
:1001350053200FD3E520940A74809480400512065D
:10014500B280127D107C007F0112054C7D107C0071
:100155007F0212054C1206D01206EEAF27EF64039C
:100165006005EF6404702D052053200FD3E520941E
:100175000A7480948040051206D080127D107C00A0
:100185007F0312054C7D107C007F0412054C12067E
:10019500B21206EEAF27EF64056005EF6406702D19
:1001A500052053200FC3E520940A748094805005E0
:1001B5001206EE80127D107C007F0512054C7D1025
:1001C5007C007F0612054C1206B21206D0E5277098
:0B01D500091206B21206D01206EE223C
:1006B200E52575F00A84FD7C007F0112054CE525D5
:0E06C20075F00A84E5F0FD7C007F0202054C15
:1006D000E52475F00A84FD7C007F0412054CE524B6
:0E06E00075F00A84E5F0FD7C007F0502054CF4
:1006EE00E52675F00A84FD7C007F0712054CE52691
:0E06FE0075F00A84E5F0FD7C007F0802054CD3
:10037E00E51F640170057D0102041EE51F64027015
:10038E00057D0202041EE51F640370057D03020451
:10039E001EE51F640470047D048075E51F640570FE
:1003AE00047D05806BE51F640670047D068061E5A3
:1003BE001F640770047D078057E51F640870047D75
:1003CE0008804DE51F640970047D098043E51F64B4
:1003DE000A70047D0A8039E51F640B70047D0B8062
:1003EE002FE51F640C70047D0C8025E51F640D70D5
:1003FE00047D0D801BE51F640E70047D0E8011E5DB
:10040E001F640F70047D0F8007E51F64107007FDD9
:07041E00FC7F0112054C22D6
:1005B900E4FF7590FFC2902094027F102095027F7E
:1005C9000C2096027F082097027F047590FFC29144
:1005D9002094027F0F2095027F0B2096027F07202F
:1005E90097027F037590FFC2922094027F0E209597
:1005F900027F0A2096027F062097027F027590FFEC
:10060900C2932094027F0D2095027F092096027FD4
:06061900052097027F019D
:01061F0022B8
:10000E008529281205B98F29AF287E00EF6401706B
:10001E0008E5297004752A0122EF64024E7008E586
:10002E00297004752A0222E52864037008E52970F8
:10003E0004752A0322AF287E00EF64047008E529B8
:10004E007004752A0422EF64054E7008E5297004C9
:10005E00752A0522E52864067008E5297004752ABC
:10006E000622AF287E00EF64077008E5297004753C
:10007E002A0722EF64084E7008E5297004752A08D5
:10008E0022E52864097008E5297004752A0922AF53
:10009E00287E00EF640A7008E5297004752A0A228A
:1000AE00EF640B4E7008E5297004752A0B22E528C3
:1000BE00640C7008E5297004752A0C22AF287E00A6
:1000CE00EF640D7008E5297004752A0D22EF640E99
:1000DE004E7008E5297004752A0E22E528640F700B
:1000EE0008E5297004752A0F22E52864107007E5CB
:0600FE00297003752A10B1
:0101040022D8
:05000300AF2AE4F52A1C
:0100080022D5
:0A070C00EF1FAC0670011E4C6011D7
:0F071600000000752B0B752CBED52CFDD52BFAD2
:0307250080E5224A
:10069D0012083F065B4F666D7D077F6F777C395E75
:0406AD00797100401F
:10054C00EF14B40800505490056175F003A4C583F2
:10055C0025F0C583730205A10205990205910205D8
:10056C008902058502058102057D020579D2A480E8
:10057C000ED2A48012D2A48016D2A4801AC2A4D205
:10058C00A3D2A28016C2A4D2A3C2A2800EC2A4C2BD
:10059C00A3D2A28006C2A4C2A3C2A274082DF8E6FC
:0D05AC00F5807F017E0012070CE4F580222F
:100728005389F0438901758A66758CFCC28DD28C19
:07073800D2AFD2A9C2B92221
:030000000204C037
:0C04C000787FE4F6D8FD75812C0205075A
:10066300BB010689828A83E0225002E722BBFE0295
:09067300E32289828A83E49322C8
:10067C00BB010689828A83F0225002F722BBFE015D
:02068C00F32257
:1004CC000201E0E493A3F8E493A34003F68001F265
:1004DC0008DFF48029E493A3F85407240CC8C33331
:1004EC00C4540F4420C8834004F456800146F6DF00
:1004FC00E4800B010204081020408090068EE47EFC
:10050C00019360BCA3FF543F30E509541FFEE493F4
:10051C00A360010ECF54C025E060A840B8E493A3BB
:10052C00FAE493A3F8E493A3C8C582C8CAC583CAE6
:10053C00F0A3C8C582C8CAC583CADFE9DEE780BE9E
:0106B1000048
:00000001FF
