:10059D0020202D20202D20200020203A20203A2020
:0205AD0020002C
:0905BE0007111704020F3B370777
:100181001205891205DC7BFF7A05799D7D017F01CE
:1001910012052A7BFF7A0579A67D017F0212052AC5
:1001A100120003120212E511FB7A00750C027D01A7
:1001B1007F01120506E512FB7A00750C027D047FB2
:1001C10001120506E513FB7A00750C027D077F011C
:1001D100120506E514FB7A00750C027D017F0212FF
:1001E1000506E515FB7A00750C027D047F021205F8
:1001F10006E516FB7A00750C027D077F02120506E3
:10020100E517FB7A00750C017D0C7F011205068054
:01021100925A
:0505DC00C2B5C2B62209
:06032B0025F0FDEC3EFC94
:10033100AB05AA04A907D2B5E4F529C3E5299408B8
:100341007480948050217E007401A829088005C31F
:1003510033CE33CED8F9FFE9FDEF5D24FF92B4D25D
:10036100B6C2B6052980D4E4F529C3E529940874F9
:1003710080948050237E007401A829088005C3332E
:10038100CE33CED8F9FFEE5AFEEF5B4E24FF92B486
:0B039100D2B6C2B6052980D2C2B52248
:10039C00AD07D2B5E4F52A430501F529C3E5299447
:1003AC00087480948050217E007401A8290880056F
:1003BC00C333CE33CED8F9FFEDFBEF5B24FF92B401
:1003CC00C2B6D2B6052980D4E4F529C3E529940830
:1003DC0074809480501AD2B6C2B630B40FAF29A82C
:1003EC00077401088002C333D8FC422A052980DB3C
:0703FC00C2B4C2B5AF2A2212
:10000300E4FDFC7F8E120331E51175F00A8475F06F
:1000130010A4FFAEF0E51175F00A84EF7F8C120394
:100023002BE51275F00A8475F010A4FFAEF0E5120B
:1000330075F00A847C00EF7F8812032BE51375F0BB
:100043000A8475F010A4FFAEF0E51375F00A847C02
:1000530000EF25F0FDEC3EFC7F86120331E51475BD
:10006300F00A8475F010A4FFAEF0E51475F00A846D
:100073007C00EF25F0FDEC3EFC7F84120331E51597
:1000830075F00A8475F010A4FFAEF0E51575F00A5B
:10009300847C00EF25F0FDEC3EFC7F82120331E50A
:1000A3001675F00A8475F010A4FFAEF0E51675F02E
:1000B3000A847C00EF25F0FDEC3EFC7F80120331C7
:1000C300E51775F00A8475F010A4FFAEF0E5177517
:1000D300F00A847C00EF25F0FDEC3EFC7F8A1203DE
:0A00E300317D807C007F8E02033126
:100212007F8C12039CEFC4540F75F00AA4FEEF54B6
:100222000F2EF5117F8812039CEFC4540F75F00A4C
:10023200A4FEEF540F2EF5127F8612039CEFC454D6
:100242000F75F00AA4FEEF540F2EF5137F841203EC
:100252009CEFC4540F75F00AA4FEEF540F2EF51450
:100262007F8212039CEFC4540F75F00AA4FEEF5470
:100272000F2EF5157F8012039CEFC4540F75F00A00
:10028200A4FEEF540F2EF5167F8A12039CEFC4547E
:0C0292000F75F00AA4FEEF540F2EF517B4
:01029E00223D
:0605AF00C2A58F80D2A757
:0805B5007F027EEFDEFEDFFC99
:0105BD00221B
:0A05C800C2A61205AFC2A70205B5D6
:10054D00CFCDCFCECCCE12012C7C007D0A12012C4A
:04055D00ED2430FF5A
:0A056100D2A61205AFC2A70205B52D
:10056B00AE07EEFB7A0064017004ED148009EB64B6
:0E057B00024A7009ED243F4480FF1205C82299
:100589007F381205C87F0C1205C87F061205C87F7F
:04059900010205C88E
:0A05D200AC0312056BAF04020561D3
:06052A008B088A09890A12
:1005300012056BE4FDAB08AA09A90A8D8275830038
:0C0540001200EDFF60061205610D80E95D
:01054C00228C
:0A04D500EF24FFFDEE34FFFC7F0A68
:0804DF008E0D8F0E8C0F8D10A5
:1004E7007F017E00E4FBEBC39510E50F6480F87491
:0E04F7008098500AAC0DAD0E12011A0B80E871
:0105050022D3
:040506008A0A8B0BC7
:10050A0012056BAA0CEAFF7E00D3940074809480D3
:0F051A00400D1204D5AC0AAD0B12054D1A80E648
:0105290022AF
:04044E008B828A8390
:1004520012056BC3E58364809480400D7F2B1205E7
:100462006185831D85821E80107F2D120561C3E484
:100472009582F51EE49583F51DAA1CEAFF7E00D342
:10048200940074809480400D1204D5AC1DAD1E12F0
:05049200054D1A80E693
:010497002242
:040403008A218B229D
:1004070012056BAA23EAD39400748094804037EADC
:1004170024FFFDE434FFFC7F107E001204DFAC21D3
:10042700AD22CFCDCFCECCCE12012CEF540FFEC3D1
:10043700940A74809480EE5004243080022437FF9D
:060447001205611A80BFDE
:01044D00228C
:040498008A268B27FE
:10049C0012056BAA28EAFF7E00D394007480948026
:1004AC004026EF24FFFDEE34FFFC7F021204DFAC8C
:1004BC0026AD27CFCDCFCECCCE12012CEF540124BC
:0804CC0030FF1205611A80CD1A
:0104D4002205
:0300000002029F5A
:0C029F00787FE4F6D8FD75812A0202E6A3
:1000ED00BB010CE58229F582E5833AF583E02250C8
:1000FD0006E92582F8E622BBFE06E92582F8E22212
:0D010D00E58229F582E5833AF583E493222B
:10011A00EF8DF0A4A8F0CF8CF0A428CE8DF0A42EF9
:02012A00FE22B3
:10012C00BC000BBE0029EF8DF084FFADF022E4CCB7
:10013C00F875F008EF2FFFEE33FEEC33FCEE9DEC80
:10014C00984005FCEE9DFE0FD5F0E9E4CEFD22EDC6
:10015C00F8F5F0EE8420D21CFEADF075F008EF2F10
:10016C00FFED33FD4007985006D5F0F222C398FD01
:05017C000FD5F0EA229E
:1002AB00020181E493A3F8E493A34003F68001F2E7
:1002BB0008DFF48029E493A3F85407240CC8C33354
:1002CB00C4540F4420C8834004F456800146F6DF23
:1002DB00E4800B01020408102040809005BEE47EF0
:1002EB00019360BCA3FF543F30E509541FFEE49318
:1002FB00A360010ECF54C025E060A840B8E493A3DF
:10030B00FAE493A3F8E493A3C8C582C8CAC583CA09
:10031B00F0A3C8C582C8CAC583CADFE9DEE780BEC1
:0105C7000033
:00000001FF
