:1006500020202D20202D20200020203A20203A206C
:0B06600020004A3A004F4B0020200011
:0C06A5000712180113150F0005011114B5
:10000E0012068212000312066B7BFF7A0679507D70
:10001E00017F011205D57BFF7A0679597D017F029A
:10002E001205D57BFF7A0679627D0A7F021205D50D
:10003E0012010D12028BE512FB7A00750C027D0186
:10004E007F011205B1E513FB7A00750C027D047F6A
:10005E00011205B1E514FB7A00750C027D077F01D4
:10006E001205B1E515FB7A00750C027D017F0212B7
:10007E0005B1E516FB7A00750C027D047F021205B0
:10008E00B1E517FB7A00750C027D077F021205B1F0
:10009E00E518FB7A00750C017D0A7F011205B1E5AA
:1000AE0014B5118F0511E51164207003751101E56A
:1000BE001454016401700E1206C61206D07BFF7A2C
:1000CE000679658012E514540170131206C61206E5
:1000DE00D07BFF7A0679687D0F7F011205D5E51179
:1000EE00FB7A00750C027D0C7F021205B1E514FB44
:0F00FE007A00750C027D0C7F011205B1020041E2
:05000300C2B5C2B622E7
:0603A40025F0FDEC3EFC1B
:1003AA00AB05AA04A907D2B5E4F52DC3E52D940837
:1003BA007480948050217E007401A82D088005C3A2
:1003CA0033CE33CED8F9FFE9FDEF5D24FF92B4D2E4
:1003DA00B6C2B6052D80D4E4F52DC3E52D94087474
:1003EA0080948050237E007401A82D088005C333B1
:1003FA00CE33CED8F9FFEE5AFEEF5B4E24FF92B40D
:0B040A00D2B6C2B6052D80D2C2B522CA
:10041500AD07D2B5E4F52E430501F52DC3E52D94C1
:10042500087480948050217E007401A82D088005F1
:10043500C333CE33CED8F9FFEDFBEF5B24FF92B487
:10044500C2B6D2B6052D80D4E4F52DC3E52D9408AA
:1004550074809480501AD2B6C2B630B40FAF2DA8AE
:10046500077401088002C333D8FC422E052D80DBBA
:07047500C2B4C2B5AF2E2294
:10010D00E4FDFC7F8E1203AAE51275F00A8475F0EA
:10011D0010A4FFAEF0E51275F00A84EF7F8C120388
:10012D00A4E51375F00A8475F010A4FFAEF0E51385
:10013D0075F00A847C00EF7F881203A4E51475F036
:10014D000A8475F010A4FFAEF0E51475F00A847CF6
:10015D0000EF25F0FDEC3EFC7F861203AAE5157538
:10016D00F00A8475F010A4FFAEF0E51575F00A8461
:10017D007C00EF25F0FDEC3EFC7F841203AAE51612
:10018D0075F00A8475F010A4FFAEF0E51675F00A4F
:10019D00847C00EF25F0FDEC3EFC7F821203AAE586
:1001AD001775F00A8475F010A4FFAEF0E51775F021
:1001BD000A847C00EF25F0FDEC3EFC7F801203AA43
:1001CD00E51875F00A8475F010A4FFAEF0E518750A
:1001DD00F00A847C00EF25F0FDEC3EFC7F8A1203D3
:0A01ED00AA7D807C007F8E0203AA29
:10028B007F8C120415EFC4540F75F00AA4FEEF54C3
:10029B000F2EF5127F88120415EFC4540F75F00A58
:1002AB00A4FEEF540F2EF5137F86120415EFC454E2
:1002BB000F75F00AA4FEEF540F2EF5147F84120471
:1002CB0015EFC4540F75F00AA4FEEF540F2EF5155D
:1002DB007F82120415EFC4540F75F00AA4FEEF547D
:1002EB000F2EF5167F80120415EFC4540F75F00A0C
:1002FB00A4FEEF540F2EF5177F8A120415EFC4548A
:0C030B000F75F00AA4FEEF540F2EF51839
:0103170022C3
:06069600C2A58F80D2A76F
:08069C007F027EEFDEFEDFFCB1
:0106A4002233
:0A06B200C2A6120696C2A702069C1B
:1005F800CFCDCFCECCCE1202367C007D0A12023689
:04060800ED2430FFAE
:0A060C00D2A6120696C2A702069CB1
:10061600AE07EEFB7A0064017004ED148009EB640A
:0E062600024A7009ED243F4480FF1206B22202
:100682007F381206B27F0C1206B27F061206B27FC4
:04069200010206B2A9
:0A06BC00AC03120616AF0402060C90
:0605D5008B088A09890A67
:1005DB00120616E4FDAB08AA09A90A8D82758300E1
:0C05EB001201F7FF600612060C0D80E9FB
:0105F70022E1
:0A058000EF24FFFDEE34FFFC7F0ABC
:08058A008E0D8F0E8C0F8D10F9
:100592007F017E00E4FBEBC39510E50F6480F874E5
:0E05A2008098500AAC0DAD0E1202240B80E8BA
:0105B0002228
:0405B1008A0A8B0B1C
:1005B500120616AA0CEAFF7E00D39400748094807C
:0F05C500400D120580AC0AAD0B1205F81A80E646
:0105D4002204
:0404C7008B828A8317
:1004CB00120616C3E58364809480400D7F2B1206C1
:1004DB000C85831E85821F80107F2D12060CC3E4B2
:1004EB009582F51FE49583F51EAA1DEAFF7E00D3C6
:1004FB00940074809480400D120580AC1EAD1F12C9
:05050B0005F81A80E66E
:0105100022C8
:04047C008A228B2322
:10048000120616AA24EAD39400748094804037EAB6
:1004900024FFFDE434FFFC7F107E0012058AAC22AD
:1004A000AD23CFCDCFCECCCE120236EF540FFEC34C
:1004B000940A74809480EE5004243080022437FF24
:0604C00012060C1A80BFB9
:0104C6002213
:040511008A278B2882
:10051500120616AA29EAFF7E00D3940074809480FF
:100525004026EF24FFFDEE34FFFC7F0212058AAC66
:1005350027AD28CFCDCFCECCCE120236EF54012435
:0805450030FF12060C1A80CDF4
:01054D00228B
:0A06C600E4F52C7FF47E01020634F7
:0A06D000752C047FF47E010206344D
:0A06DA00752C017FC87E0002063473
:03000B0002054E9D
:04054E00C0E0C0D079
:10055200758A33758CFE052BE52B7002052A6428FB
:10056200452A7004F52AF52BD3E52B952CE52A9420
:09057200005004D2B08002C2B0B6
:05057B00D0D0D0E032F9
:0A063400EF1FAC0670011E4C6011B0
:0F063E0000000075080B7509BED509FDD508FA37
:03064D0080E52223
:10066B005389F0438901758A33758CFEC28DD28C08
:07067B00D2AFD2A9C2B922DF
:03000000020318E0
:0C031800787FE4F6D8FD75812E02035FAB
:1001F700BB010CE58229F582E5833AF583E02250BD
:1002070006E92582F8E622BBFE06E92582F8E22206
:0D021700E58229F582E5833AF583E4932220
:10022400EF8DF0A4A8F0CF8CF0A428CE8DF0A42EEE
:02023400FE22A8
:10023600BC000BBE0029EF8DF084FFADF022E4CCAC
:10024600F875F008EF2FFFEE33FEEC33FCEE9DEC75
:10025600984005FCEE9DFE0FD5F0E9E4CEFD22EDBB
:10026600F8F5F0EE8420D21CFEADF075F008EF2F05
:10027600FFED33FD4007985006D5F0F222C398FDF6
:050286000FD5F0EA2293
:1003240002000EE493A3F8E493A34003F68001F2E1
:1003340008DFF48029E493A3F85407240CC8C333DA
:10034400C4540F4420C8834004F456800146F6DFA9
:10035400E4800B01020408102040809006A5E47E8E
:10036400019360BCA3FF543F30E509541FFEE4939E
:10037400A360010ECF54C025E060A840B8E493A365
:10038400FAE493A3F8E493A3C8C582C8CAC583CA90
:10039400F0A3C8C582C8CAC583CADFE9DEE780BE48
:0106B1000048
:00000001FF
