:1007880074656D70657261747572653A002D002B21
:010798000060
:100462001207A87F647E001207111207617BFF7AD0
:100472000779887D017F011206901207A812061BD8
:100482008F1C8E1B8D1A8C19E4FFFEFDFCAB1CAA7F
:100492001BA91AA8191201A97BFF50207A07799586
:1004A2007D017F02120690AF1CAE1BAD1AAC191271
:1004B20002228F1C8E1B8D1A8C19800B7A0779975A
:1004C2007D017F02120690AF1CAE1BAD1AAC191251
:1004D2000271AB07AA06750C037D027F0212066C3D
:1004E2007B2E7D057F021207CB7F007E407D1C7C28
:1004F20046AB1CAA1BA91AA819120003120271E426
:100502007B107A27F9F81203C2750C047D067F026C
:0605120012066C02047CDD
:0A071100EF1FAC0670011E4C6011D2
:0F071B0000000075080B7509BED509FDD508FA59
:03072A0080E52245
:06079900C2A58F80D2A76B
:08079F007F027EEFDEFEDFFCAD
:0107A700222F
:0A07C100C2A6120799C2A702079F03
:1006D500CFCDCFCECCCE1203317C007D0A120331B3
:0406E500ED2430FFD1
:0A06E900D2A6120799C2A702079FCC
:1006F300AE07EEFB7A0064017004ED148009EB642D
:0E070300024A7009ED243F4480FF1207C12214
:100761007F381207C17F0C1207C17F061207C17FB4
:04077100010207C1B9
:0A07CB00AC031206F3AF040206E9C6
:060690008B088A09890AAB
:100696001206F3E4FDAB08AA09A90A8D8275830048
:0C06A6001202F2FF60061206E90D80E966
:0106B2002225
:0A05EA00EF24FFFDEE34FFFC7F0A52
:0805F4008E0D8F0E8C0F8D108F
:1005FC007F017E00E4FBEBC39510E50F6480F8747B
:0E060C008098500AAC0DAD0E12031F0B80E853
:01061A0022BD
:04066C008A0A8B0B60
:100670001206F3AA0CEAFF7E00D3940074809480E3
:0F068000400D1205EAAC0AAD0B1206D51A80E642
:01068F002248
:040563008B828A837A
:100567001206F3C3E58364809480400D7F2B120647
:10057700E985831685821780107F2D1206E9C3E46B
:100587009582F517E49583F516AA15EAFF7E00D341
:10059700940074809480400D1205EAAC16AD1712D2
:0505A70006D51A80E6F4
:0105AC00222C
:040518008A1F8B208B
:10051C001206F3AA21EAD39400748094804037EA3F
:10052C0024FFFDE434FFFC7F107E001205F4AC1FA9
:10053C00AD20CFCDCFCECCCE120331EF540FFEC3B6
:10054C00940A74809480EE5004243080022437FF87
:06055C001206E91A80BF3F
:010562002276
:0405AD008A248B25EC
:1005B1001206F3AA26EAFF7E00D394007480948089
:1005C1004026EF24FFFDEE34FFFC7F021205F4AC60
:1005D10024AD25CFCDCFCECCCE120331EF540124A3
:0805E10030FF1206E91A80CD7B
:0105E90022EF
:10072D00D2B7C2B77FE3DFFED2B77F1EDFFEA2B71F
:09073D00E433FE7FE3DFFEAF06AA
:010746002290
:10077500C2B7007E04DEFEEF24FF92B77E17DEFED1
:02078500D2B7E9
:01078700224F
:10074700C2B7007F01DFFED2B7007F01DFFEA2B78D
:09075700E433FE7F17DFFEAF065C
:010760002276
:0206B300AD0791
:1006B500E4FCECC39408748094805013A80474017E
:0F06C500088002C333D8FC5DFF1207750C80E379
:0106D4002203
:10064600E4FDFCECC39408748094805016120747AE
:10065600EF600DA8047401088002C333D8FC42057C
:050666000C80E0AF056F
:01066B00226C
:0D07A80012072D7FCC1206B37F440206B36A
:10061B0012072D7FCC1206B37FBE1206B31206460D
:10062B008F08120646EFFEE508FFFDAC06EC120242
:0B063B0038E4FBFA7980784102010CE2
:10000300EC4D6011E8497017ED33EC3304600DE4F7
:10001300FCFFFEFD22E933E8330470F80202DD122F
:1000230002A858046009E4CC248150062850090230
:1000330002E72840030202E4C0E0EB4A7044B980BF
:1000430006D0E0FB0202D3EF4E701CBD8008EBFF2D
:10005300EAFEE9FD80EBE98DF0A4FEE5F00200EC99
:10006300E9CDF9EAFEEBFFEF89F0A4FCE5F0CE89D8
:10007300F0A42EFFE435F0CD89F0A42DFEE435F095
:100083008067EF4E7005BD80D780C3EF8BF0A4ACC3
:10009300F0EE8BF0A42CFCE435F0F8EF8AF0A42CFE
:1000A300E5F038FCE433CB8DF0A42CFCE5F03BF811
:1000B300EE8AF0A42CFCE5F038F8E433CF89F0A401
:1000C3002CFCE5F038CF3400CE89F0A42FFFE5F007
:1000D3003EFEE433C98DF0A42EFEE5F039CD8AF05F
:1000E300A42FFFE5F03EFEE43DFD33D0E0FB5007D7
:1000F3000BBB000F0202E7EC2CFCEF33FFEE33FEE9
:06010300ED33FD0202BF16
:100109000202E7EC5D046005E8590470030202DDB0
:100119001202A8580460F6EC4860F2EC7004FDFE87
:10012900FF22C860DB2481C85009C39860025006C9
:100139000202E49850CAF582E9294B4A7005AB825C
:100149000202D375F0007C1A7880C3EF9BEE9AED1A
:1001590099400DC3EF9BFFEE9AFEED99FDE842F041
:10016900DC23ACF0D0E0FFD0E0FED0E0FDAB822094
:10017900E7101BEB60BAEC2CFCEF33FFEE33FEED1E
:1001890033FD0202BFE803F830E705C0F075F0005F
:10019900EF2FFFEE33FEED33FD40B830E7C280AA02
:1001A90074F8CC6480CCC86480C8F58204604FC3FD
:1001B900EB9FF5F0EA9E42F0E99D42F0E89C45F09C
:1001C900603C501DE5825FFFE582D313CB5BCBF426
:1001D9002B5582FB50280ABA002409B9002008804F
:1001E9001DE5825BFBE582D313CF5FCFF4C3132FE9
:1001F9005582FF50090EBE00050DBD00010CC3EB71
:100209009FF5F0EA9E42F0E99D42F0E89C45F060D6
:0902190007CC4820E701B3EC22F8
:10022200ED33EC33600A047003BD8004ECB2E7FCEA
:0102320022A9
:1002330075F020800E75F010800575F0087D007E46
:10024300007F003392D530D503120454EC334010B1
:10025300EF33FFEE33FEED33FDEC33FCD5F0ED224F
:0E026300E5F0247EA2D513CC92E7CDCEFF228B
:10027100EDD2E7CD33EC3392D524814006E4FFFE85
:10028100FDFC22FCE4CFCECDCC24E0501174FF80E4
:10029100EDC3CC13CCCD13CDCE13CECF13CF047081
:0702A100F030D5DE02045429
:1002A800E9D2E7C933E833F892D5EDD2E7CD33EC9C
:0702B80033FC5002B2D52215
:1002BF00EC30E7100FBF000C0EBE00080DBD0004A0
:1002CF000BEB6014A2D5EB13FCED92E7FD2274FF4C
:1002DF00FCFDFEFF22E480F8A2D574FF13FC7D80A5
:0302EF00E480EFB9
:030000000207B53F
:0C07B500787FE4F6D8FD7581270204620D
:1002F200BB010CE58229F582E5833AF583E02250C1
:1003020006E92582F8E622BBFE06E92582F8E2220A
:0D031200E58229F582E5833AF583E4932224
:10031F00EF8DF0A4A8F0CF8CF0A428CE8DF0A42EF2
:02032F00FE22AC
:10033100BC000BBE0029EF8DF084FFADF022E4CCB0
:10034100F875F008EF2FFFEE33FEEC33FCEE9DEC79
:10035100984005FCEE9DFE0FD5F0E9E4CEFD22EDBF
:10036100F8F5F0EE8420D21CFEADF075F008EF2F09
:10037100FFED33FD4007985006D5F0F222C398FDFA
:050381000FD5F0EA2297
:1003860075F008758200EF2FFFEE33FECD33CDCC2E
:1003960033CCC58233C5829BED9AEC99E5829840B1
:1003A6000CF582EE9BFEED9AFDEC99FC0FD5F0D68E
:1003B600E4CEFBE4CDFAE4CCF9A88222B800C1B9B8
:1003C6000059BA002DEC8BF084CFCECDFCE5F0CBF6
:1003D600F97818EF2FFFEE33FEED33FDEC33FCEB2F
:1003E60033FB10D703994004EB99FB0FD8E5E4F9EA
:1003F600FA227818EF2FFFEE33FEED33FDEC33FCD7
:10040600C933C910D7059BE99A4007EC9BFCE99ACA
:10041600F90FD8E0E4C9FAE4CCFB2275F010EF2F0F
:10042600FFEE33FEED33FDCC33CCC833C810D7070F
:100436009BEC9AE899400AED9BFDEC9AFCE899F84A
:0E0446000FD5F0DAE4CDFBE4CCFAE4C8F922DD
:0E045400C3E49FFFE49EFEE49DFDE49CFC22B9
:00000001FF
