:1001750012083F065B4F666D7D077F6F777C395EA2
:04018500797100404C
:10009A00EF14B4080050549000AF75F003A4C58360
:1000AA0025F0C583730200EF0200E70200DF0200B9
:1000BA00D70200D30200CF0200CB0200C7D2A4802D
:1000CA000ED2A48012D2A48016D2A4801AC2A4D2BC
:1000DA00A3D2A28016C2A4D2A3C2A2800EC2A4C274
:1000EA00A3D2A28006C2A4C2A3C2A274082DF8E6B3
:0D00FA00F5807F027E001201A4E4F5A02233
:10018D005389F0438901758A66758CFCC28DD28CBA
:07019D00D2AFD2A9C2B922C2
:1001A400EF1FAC0670011E4C600C00007D027C0F3A
:0601B400DCFEDDFC80EA28
:0101BA002222
:03018900011F183B
:10014A0012018D7D117C007F0712009A7D117C00BF
:10015A007F0412009AE51CFD7C007F0512009AE5D7
:0B016A001DFD7C007F0612009A80D86B
:03000B00020107E8
:06010700C0E0C0F0C0D012
:10010D00758A66758CFC051BE51B7002051AB4E833
:10011D0025E51AB40320751A00751B00151FE51F80
:10012D007003751F18E51F75F00A8485F01CE51F17
:06013D0075F00A84F51DB7
:07014300D0D0D0F0D0E03273
:0300000002000EED
:0C000E00787FE4F6D8FD75811F020055D4
:10001A0002014AE493A3F8E493A34003F68001F2B1
:10002A0008DFF48029E493A3F85407240CC8C333E7
:10003A00C4540F4420C8834004F456800146F6DFB6
:10004A00E4800B0102040810204080900175E47ED0
:10005A00019360BCA3FF543F30E509541FFEE493AB
:10006A00A360010ECF54C025E060A840B8E493A372
:10007A00FAE493A3F8E493A3C8C582C8CAC583CA9D
:10008A00F0A3C8C582C8CAC583CADFE9DEE780BE55
:01018C000072
:00000001FF
