:10020C00120263E4F51CC3E51C9464748094805062
:10021C000E851C1B7F017E00120247051C80E775B2
:10022C001C64D3E51C94007480948040D6851C1B00
:0B023C007F017E00120247151C80E7C6
:03000B000201BB34
:1001BB00C0E0C0F0C0D075D000C000C004C005C006
:0301CB0006C00764
:1001CE00758AA4758CFF051AE51A70020519AE1909
:1001DE00FF7C007D641201668C198D1AC3E51A9599
:0D01EE001BE51994005004D2A18002C2A1AB
:1001FB00D007D006D005D004D000D0D0D0F0D0E0BE
:01020B0032C0
:0A024700EF1FAC0670011E4C6011A1
:0F025100000000751D0B751EBED51EFDD51DFAD4
:0302600080E52214
:10010300E4F51F20B1137F14FE12024730B1FD7FC7
:10011300147E00120247751F0120B0147F147E0065
:1001230012024730B0FD7F147E00120247751F0292
:1001330020B2147F147E0012024730B2FD7F147E7A
:1001430000120247751F0320B3147F147E001202AE
:100153004730B3FD7F147E00120247751F04AF1FA3
:020163007E001C
:010165002277
:100263005389F0438901758AA4758CFFC28DD28CA2
:07027300D2AFD2A9C2B922EB
:10027A0011083F065B4F666D7D077F6F777C395E9D
:03028A0079710087
:10009A00EF14B4080050549000AF75F003A4C58360
:1000AA0025F0C583730200EF0200E70200DF0200B9
:1000BA00D70200D30200CF0200CB0200C7D2A4802D
:1000CA000ED2A48012D2A48016D2A4801AC2A4D2BC
:1000DA00A3D2A28016C2A4D2A3C2A2800EC2A4C274
:1000EA00A3D2A28006C2A4C2A3C2A274082DF8E6B3
:0900FA00F5807F017E000202473F
:0300000002000EED
:0C000E00787FE4F6D8FD75811F020055D4
:10016600BC000BBE0029EF8DF084FFADF022E4CC7D
:10017600F875F008EF2FFFEE33FEEC33FCEE9DEC46
:10018600984005FCEE9DFE0FD5F0E9E4CEFD22ED8C
:10019600F8F5F0EE8420D21CFEADF075F008EF2FD6
:1001A600FFED33FD4007985006D5F0F222C398FDC7
:0501B6000FD5F0EA2264
:10001A0002020CE493A3F8E493A34003F68001F2EE
:10002A0008DFF48029E493A3F85407240CC8C333E7
:10003A00C4540F4420C8834004F456800146F6DFB6
:10004A00E4800B010204081020408090027AE47ECA
:10005A00019360BCA3FF543F30E509541FFEE493AB
:10006A00A360010ECF54C025E060A840B8E493A372
:10007A00FAE493A3F8E493A3C8C582C8CAC583CA9D
:10008A00F0A3C8C582C8CAC583CADFE9DEE780BE55
:01028D000070
:00000001FF
