:0300000002025C9D
:0C025C00787FE4F6D8FD7581200202A333
:0C03B200011B06011C17011E00011A00AF
:10018C00E51BFD7C007F011202E8E51C75F00A847A
:10019C00FD7C007F081202E8E51C75F00A84E5F08E
:1001AC00FD7C007F071202E87D117C007F061202A5
:1001BC00E87D027C007F051202E87D097C007F044B
:1001CC001202E87D117C007F031202E87D057C00A1
:1001DC007F021202E81203518F1FE51F60277E0079
:1001EC0064017002B2A0EF64024E7009E51B70034B
:1001FC00751B0A151BE51F6403700A051BE51B64C0
:10020C000A7002F51B1200038F1DE51D700302011D
:10021C008C7E00D3940A748094805021C3E51A9488
:10022C0002748094805016E51E75F00AA4F51EE544
:10023C001D75F00A84E5F0251EF51E051AEF640DF8
:10024C004E600302018C851E1CF51AF51E02018CF2
:1003D300EF1FAC0670011E4C600A7D027CEFDCFE51
:0403E300DDFC80ECD1
:0103E70022F3
:1003BE0012083F065B4F666D7D077F6F777C395E57
:0403CE007971004001
:1002E800EF14B4080050549002FD75F003A4C583C0
:1002F80025F0C5837302033D02033502032D020373
:100308002502032102031D020319020315D2A4804A
:100318000ED2A48012D2A48016D2A4801AC2A4D26B
:10032800A3D2A28016C2A4D2A3C2A2800EC2A4C223
:10033800A3D2A28006C2A4C2A3C2A274082DF8E662
:09034800F5807F017E000203D361
:10000300E4F5207590FFC2902094137F14FE120331
:10001300D33094FD7F147E001203D37520102095F6
:10002300147F147E001203D33095FD7F147E0012DB
:1000330003D375200C2096147F147E001203D33053
:1000430096FD7F147E001203D37520082097147F3A
:10005300147E001203D33097FD7F147E001203D366
:100063007520047590FFC2912094147F147E0012B2
:1000730003D33094FD7F147E001203D375200F2029
:1000830095147F147E001203D33095FD7F147E00F8
:100093001203D375200B2096147F147E001203D312
:1000A3003096FD7F147E001203D37520072097142A
:1000B3007F147E001203D33097FD7F147E0012035A
:1000C300D37520037590FFC2922094147F147E0091
:1000D3001203D33094FD7F147E001203D375200ED8
:1000E3002095147F147E001203D33095FD7F147E78
:1000F300001203D375200A2096147F147E00120386
:10010300D33096FD7F147E001203D375200620970B
:10011300147F147E001203D33097FD7F147E0012E8
:1001230003D37520027590FFC2932094147F147E2D
:10013300001203D33094FD7F147E001203D3752085
:100143000D2095147F147E001203D33095FD7F1488
:100153007E001203D37520092096147F147E0012AB
:1001630003D33096FD7F147E001203D37520052040
:1001730097147F147E001203D33097FD7F147E0003
:080183001203D3752001AF2027
:01018B002251
:10035100E4F52020B1137F14FE1203D330B1FD7FE9
:10036100147E001203D375200120B0147F147E0087
:100371001203D330B0FD7F147E001203D375200227
:1003810020B2147F147E001203D330B2FD7F147E9D
:10039100001203D375200320B3147F147E001203CF
:1003A100D330B3FD7F147E001203D3752004AF2038
:0103B1002229
:1002680002018CE493A3F8E493A34003F68001F21F
:1002780008DFF48029E493A3F85407240CC8C33397
:10028800C4540F4420C8834004F456800146F6DF66
:10029800E4800B01020408102040809003B2E47E41
:1002A800019360BCA3FF543F30E509541FFEE4935B
:1002B800A360010ECF54C025E060A840B8E493A322
:1002C800FAE493A3F8E493A3C8C582C8CAC583CA4D
:1002D800F0A3C8C582C8CAC583CADFE9DEE780BE05
:0103D200002A
:00000001FF
