:1001E500120006120457120425EF60291204638FCA
:1001F500287E00EF64167002F529EF640C4E70033B
:10020500752901EF64184E7003752902EF645E4E7F
:100215007003752903E529FD7C007F0812024FE56F
:10022500297004FF12045DE529640170057F32120F
:10023500045DE529640270057F4B12045DE52964C0
:0A0245000370A37F6412045D809C27
:0A03C100EF1FAC0670011E4C601126
:0F03CB00000000752A0B752BBED52BFDD52AFA25
:0303DA0080E52299
:1002B800E4F52C20B1137F14FE1203C130B1FD7F89
:1002C800147E001203C1752C0120B0147F147E0027
:1002D8001203C130B0FD7F147E001203C1752C02D9
:1002E80020B2147F147E001203C130B2FD7F147E49
:1002F800001203C1752C0320B3147F147E0012036F
:10030800C130B3FD7F147E001203C1752C04AF2CDD
:020318007E0065
:01031A0022C0
:1003F40011083F065B4F666D7D077F6F777C395E22
:030404007971000B
:10024F00EF14B40800505490026475F003A4C583F2
:10025F0025F0C583730202A402029C0202940202DB
:10026F008C02028802028402028002027CD2A480E5
:10027F000ED2A48012D2A48016D2A4801AC2A4D205
:10028F00A3D2A28016C2A4D2A3C2A2800EC2A4C2BD
:10029F00A3D2A28006C2A4C2A3C2A274082DF8E6FC
:0902AF00F5807F017E000203C10D
:1003DD0053890F438910758BA4758DFFC28FD28EF3
:0703ED00D2AFD2ABC2BB226C
:0B043200D288C289D2A8D2AFD2B82273
:100408005389F0438901E4F58AF58CC28DC28C22A8
:0B043D00AD07AC068C8CAF058F8A2247
:09044800AF8CEFFEAD8AEDFF223E
:06045100EF24FF928C2253
:030006000203DD15
:03045D008F2722C4
:03000B000203707D
:10037000C0E0C0F0C0D075D000C000C004C005C04F
:0303800006C007AD
:10038300758BA4758DFF0526E52670020525AE2520
:10039300FF7C007D6412031B8C258D26C3E5269507
:0D03A30027E52594005004D2908002C290FE
:1003B000D007D006D005D004D000D0D0D0F0D0E007
:0103C000320A
:0604570012040802043249
:0D041800E51E6006E4F51E7F01227F002234
:0D042500E5206006E4F5207F01227F002223
:03046000AF1D22AB
:03046300AF1C22A9
:0300030002000EEA
:10000E00C0E0C0F0C083C082C0D075D000C000C0B8
:10001E0001C002C003C004C005C006C007E51970C8
:10002E000CFFFE12043D7F01120451804CE5196451
:10003E0001704C75A0FE1204488E1A8F1BE4FFFE51
:10004E0012043DC3E51B94B0E51A94365010E51B1F
:10005E0094C8E51A9432400675190202013EC3E5B2
:10006E001B94E6E51A942D5010E51B94FEE51A94A8
:10007E00294006751E0102013675190102013EE581
:10008E00196402600302013E1204488E1A8F1BE4AB
:10009E00FFFE12043DC3E51B9454E51A9406502B43
:1000AE00E51B946CE51A94024021E51F13131354BB
:1000BE001F2421F8C000E6FFE51F5407FEF8740167
:1000CE00088002C333D8FCF45F8033C3E51B94BEB3
:1000DE00E51A940A502FE51B94D6E51A940640258E
:1000EE00E51F131313541F2421F8C000E6FFE51F6C
:1000FE005407FEF87401088002C333D8FC4FD000B9
:10010E00F6051F8006751F00751901E51F64207026
:10011E001FF51FE522F4B5210FE524F4B52309855B
:10012E00211D85231C752001751900E4FF12045151
:10013E00D007D006D005D004D003D002D001D00015
:0B014E00D0D0D082D083D0F0D0E032BF
:03000000020159A1
:0C015900787FE4F6D8FD75812C0201A02F
:10031B00BC000BBE0029EF8DF084FFADF022E4CCC6
:10032B00F875F008EF2FFFEE33FEEC33FCEE9DEC8F
:10033B00984005FCEE9DFE0FD5F0E9E4CEFD22EDD5
:10034B00F8F5F0EE8420D21CFEADF075F008EF2F1F
:10035B00FFED33FD4007985006D5F0F222C398FD10
:05036B000FD5F0EA22AD
:100165000201E5E493A3F8E493A34003F68001F2CA
:1001750008DFF48029E493A3F85407240CC8C3339B
:10018500C4540F4420C8834004F456800146F6DF6A
:10019500E4800B01020408102040809003F4E47E03
:1001A500019360BCA3FF543F30E509541FFEE4935F
:1001B500A360010ECF54C025E060A840B8E493A326
:1001C500FAE493A3F8E493A3C8C582C8CAC583CA51
:1001D500F0A3C8C582C8CAC583CADFE9DEE780BE09
:0104070000F4
:00000001FF
