:08000300D283C287D28680F887
:030023000200AB2D
:1000AB00C0E0C0F0C083C082C0D075D000C000C01B
:1000BB0001C002C003C004C005C006C0073098468B
:1000CB00C29885990FAF0F12020BE50F24FE601A31
:1000DB0024FB601B14601D14601F24F96020146046
:1000EB002224107021751001801C751002800A12D9
:1000FB00000E80121201DB800D1202238008120108
:10010B00E780031201CFD007D006D005D004D0036F
:10011B00D002D001D000D0D0D082D083D0F0D0E0AC
:01012B0032A1
:1001B8005389F0438901758AA4758CFFC28DD28C4E
:0701C800D2AFD2A9C2B92297
:05022E00C287D2862208
:05023300D287C2862203
:05023800C287C286220E
:05023D00C285D28422FD
:05024200D285C28422F8
:05024700C285C2842203
:0C000E00750C14750D1412022E02023D38
:0C01CF00750C14750D141202330202426C
:0B022300E4F50CF50D12023802024752
:0C01DB00750C32750D1412023302023D47
:0C01E700750D32750C1412024202022E3B
:0C01F300750C32750D1412022E0202422F
:0C01FF00750D32750C1412023D02023323
:03000B0002012CC3
:04012C00C0E0C0D09F
:10013000758AA4758CFF0509E509700205086464D9
:1001400045087004F508F509D3E509950CE5089410
:10015000005004D2828002C282050BE50B700205BA
:100160000A6464450A7004F50AF50BD3E50B950D96
:0C017000E50A94005004D2838002C28390
:05017C00D0D0D0E032FC
:10019D0043878075985053890F438920758BFA7565
:0B01AD008DFAC2ABD28ED2AFD2AC22D2
:0C020B00C2AC8F993099FDC299D2AC2290
:1000260020A00930A10620A20312000E30A009204C
:10003600A10630A20312000E30A01520A11220A2A4
:100046000F1201E720A00920A10620A20312000E2C
:1000560030A01530A11220A20F1201E720A009201E
:10006600A10620A20312000E20A01520A11230A284
:100076000F1201DB20A00920A10620A20312000E08
:1000860020A01530A11230A20F1201DB20A00920FA
:10009600A10620A20312000E20A00920A10620A27C
:0500A6000312022322F9
:0A018100EF1FAC0670011E4C601168
:0F018B0000000075110B7512BED512FDD511FACB
:03019A0080E522DB
:07001A000000007F34DFFE4F
:0100210022BC
:03000000020217E2
:0C021700787FE4F6D8FD75811202000328
:00000001FF
