:10000E001203E51204248F2F7E00EF6401700CE5BD
:10001E002C70047D0180027D008D2CEF64024E70E9
:10002E0006F52BF52AF52EE52F64037033E52BFD2F
:10003E007C00E4FF12032D7F057E00120397E52A54
:10004E00FD7C007F0112032D7F057E00120397E5D4
:10005E002EFD7C007F0212032D7F057E001203977A
:10006E00E52F64047014FF1202D68F2B7F0112024B
:10007E00D68F2A7F021202D68F2EE52B75F00A84B8
:10008E00FD7C007F08120412E52B75F00A84E5F062
:10009E00FD7C007F071204127D127C007F06120485
:1000AE0012E52A75F00A84FD7C007F05120412E524
:1000BE002A75F00A84E5F0FD7C007F041204127D9F
:1000CE00127C007F03120412E52E75F00A84FD7C6B
:1000DE00007F02120412E52E75F00A84FD7C007F6B
:0700EE0001120412020011CF
:10035100E52C601E052EE52E64647016F52E052A27
:10036100E52A643C700CF52A052BE52B643C7002F0
:03037100F52B2247
:03000B000201816E
:10018100C0E0C0F0C083C082C0D075D000C000C044
:0D01910001C002C003C004C005C006C007C5
:10019E00758A66758CFC0525E525700205246414A8
:1001AE0045247007F524F5251202640527E527700E
:1001BE00020526640245267007F526F5271203B3BD
:1001CE000529E52970020528640A45287007F528D7
:0501DE00F52912035198
:1001E300D007D006D005D004D003D002D001D00070
:0B01F300D0D0D082D083D0F0D0E0321A
:0A039700EF1FAC0670011E4C601150
:0F03A10000000075330B7534BED534FDD533FA2B
:0303B00080E522C3
:1003CD00E4FF20B1010F20B0027F0220B2027F03B3
:0703DD0020B3027F047E0043
:0103E40022F6
:100264008531301203CD8F31AF307E00EF640170E1
:1002740007E5317003753201EF64024E7007E53112
:100284007003753202E53064037007E5317003755D
:0F0294003203E53064047007E5317003753204FE
:0102A3002238
:05042400AF32E4F532E7
:0104290022B0
:1003740012123F065B4F666D7D077F6F777C395E97
:10038400797100400909001212121212121212019C
:0203940008015E
:09041200AE0574092FF8A60622BC
:1001FE00E4F5A0EF14B40800505490021675F00305
:10020E00A4C58325F0C5837302025602024E020274
:10021E004602023E02023A02023602023202022E68
:10022E00D2A4800ED2A48012D2A48016D2A4801A98
:10023E00C2A4D2A3D2A28016C2A4D2A3C2A2800EFE
:10024E00C2A4C2A3D2A28006C2A4C2A3C2A2741226
:06025E002DF8E6F58022F8
:1003B30074092508F8E6FD7C00AF081201FE050864
:0903C300E50864097003750801E6
:0103CC00220E
:1003E5005389F0438901758A66758CFCC28DD28C60
:0703F500D2AFD2A9C2B92268
:09041B00D2A1D2A0C2A0C2A1220C
:07000300C2A0D2A1D2A0228D
:0202A400AD07A4
:1002A600E4FBEBC394087480948050237E00748032
:1002B600A803088006CEA2E713CE13D8F8FFEDF503
:0F02C60082EF558224FF92A0D2A1C2A10B80D358
:0102D5002206
:10030600E4FFD2A0FEEEC39408748094805017D206
:10031600A130A00DA8067480088002C313D8FC4241
:0603260007C2A10E80DFFA
:01032C0022AE
:0A040800EF24FF92A0D2A1C2A122AE
:0B03FC00D2A0D2A1A2A0E433FFC2A156
:0104070022D2
:10032D008F338C348D3512041B7FA01202A412035F
:10033D00FCAF331202A41203FCAF351202A4120358
:04034D00FC020003AB
:0202D6008F3364
:1002D80012041B7FA01202A41203FCAF331202A463
:1002E8001203FC12041B7FA11202A41203FC1203C6
:0D02F800068F347F01120408120003AF349A
:0103050022D5
:030000000200F506
:0C00F500787FE4F6D8FD75813502013CEF
:1001010002000EE493A3F8E493A34003F68001F206
:1001110008DFF48029E493A3F85407240CC8C333FF
:10012100C4540F4420C8834004F456800146F6DFCE
:10013100E4800B0102040810204080900374E47EE7
:10014100019360BCA3FF543F30E509541FFEE493C3
:10015100A360010ECF54C025E060A840B8E493A38A
:10016100FAE493A3F8E493A3C8C582C8CAC583CAB5
:10017100F0A3C8C582C8CAC583CADFE9DEE780BE6D
:010396000066
:00000001FF
