:10014200120222E51914B4080050F890015B75F010
:1001520003A4C58325F0C5837302017302017B02E8
:10016200018302018B02019302019B0201A302019E
:10017200AE7D017C007F08802E7D027C007F07809F
:10018200267D037C007F06801E7D047C007F058027
:10019200167D057C007F04800E7D067C007F038037
:1001A200067D077C007F021201B980977D087C00E2
:0701B2007F011201B9808CEE
:03002300020026B2
:10002600C0E0C0F0C083C082C0D075D000C000C0A0
:1000360001C002C003C004C005C006C00730985501
:10004600C29885991AAF1A7E00EF6401700375197C
:1000560001EF64024E7003751902EF64034E7003DC
:10006600751903EF64044E7003751904EF64054EA9
:100076007003751905EF64064E7003751906EF6473
:10008600074E7003751907EF64084E70037519085B
:10009600AF1A120251D007D006D005D004D003D033
:1000A60002D001D000D0D0D082D083D0F0D0E032C0
:1002220043878075985053890F438920758BFA75DF
:0B0232008DFAC2ABD28ED2AFD2AC224C
:0C025100C2AC8F993099FDC299D2AC224A
:0A000300EF1FAC0670011E4C6011E7
:0F000D00000000751B0B751CBED51CFDD51BFA22
:03001C0080E5225A
:0A025D0000007F027E0FDEFEDFFCD2
:010267002274
:10023D0011083F065B4F666D7D077F6F777C395EDA
:03024D00797100C4
:1001B900EF14B4080050549001CE75F003A4C58320
:1001C90025F0C5837302020E0202060201FE020136
:1001D900F60201F20201EE0201EA0201E6D2A4806E
:1001E9000ED2A48012D2A48016D2A4801AC2A4D29C
:1001F900A3D2A28016C2A4D2A3C2A2800EC2A4C254
:10020900A3D2A28006C2A4C2A3C2A274082DF8E692
:09021900F58012025DE4F5A0225B
:030000000200B645
:0C00B600787FE4F6D8FD75811C0200FD87
:1000C200020142E493A3F8E493A34003F68001F211
:1000D20008DFF48029E493A3F85407240CC8C3333F
:1000E200C4540F4420C8834004F456800146F6DF0E
:1000F200E4800B010204081020408090023DE47E5F
:10010200019360BCA3FF543F30E509541FFEE49302
:10011200A360010ECF54C025E060A840B8E493A3C9
:10012200FAE493A3F8E493A3C8C582C8CAC583CAF4
:10013200F0A3C8C582C8CAC583CADFE9DEE780BEAC
:0102500000AD
:00000001FF
