:10000300E4F50875A0FE20B12B7F147E0012006872
:1000130030B1FD7F147E001200680508E50864080E
:100023007002F508AF08A8077401088002C333D82B
:10003300FCF4F5A020B0CF7F147E0012006830B02E
:10004300FD7F147E00120068E508700575080780BF
:10005300021508AF08A8077401088002C333D8FC4F
:05006300F4F5A080A1EE
:0A006800EF1FAC0670011E4C601182
:0F00720000000075090B750ABED50AFDD509FA05
:0300810080E522F5
:0300000002008477
:0C008400787FE4F6D8FD75810A020003C5
:00000001FF
