:101ABC004C673A00426F756E643A00436F756E74F2
:101ACC003A004E69676874004461792020005261C5
:101ADC00696E0044727920004D616E75616C004135
:101AEC0075746F20200057697468647261770045C3
:101AFC007874656E64202000537065616B20004D16
:061B0C00617472697800AB
:101D210041002C00410034004100330041003100EA
:101D310041002E004100300041002B0041003200E3
:081D41004100350041002A00B9
:100F8E00121DD3121E0812144F121C017BFF7A1A67
:100F9E0079BC9000217410F0E4FDFF121A587BFF0B
:100FAE007A1A79C09000217410F0E4FD7F3F121A76
:100FBE00587BFF7A1A79C79000217410F07D067F56
:100FCE003F121A58120003900031EFF0900030E0FB
:100FDE00FB7A009000207402F0A37410F07D067F5F
:100FEE006E121602900031E0FF70030210BF9000E7
:100FFE0030E004F0D3EF940A74809480503990005E
:10100E002DE0640160030210BFA3E0C3940274805C
:10101E00948040030210BF900033E075F00AA4F0F4
:10102E00900031E075F00A84900033E025F0F090E6
:10103E00002EE004F0807A900031E0FF7E00640B19
:10104E00700E90002D04F0E4A3F0900034F0806157
:10105E00EF640C4E701B900033E0FFA3F0E49000A1
:10106E002DF0A37402F0EFFD7C00E4FF121C6A80E9
:10107E0040900031E0FF7E00640D701620A4329087
:10108E00002BE070047D0180027D0090002BEDF0BE
:10109E00801FEF640E4E701990002BE0700204F06A
:1010AE00900032E070047F0180027F00900032EFEA
:1010BE00F030A40890002F7401F0800820A405E4FD
:1010CE0090002FF090002FE064017005121D7180CA
:1010DE000990002FE070031218FF90002BE0701D96
:1010EE00900034E0FF90002CE0D39F400A3084073C
:1010FE00E4900032F080069000327401F0208406F5
:10110E009000327401F0121260900032E0640170AF
:10111E0006121E8E020FD2900032E06003020FD232
:06112E00121E81020FD227
:101D710030A20890002B7401F0800820A205E490A5
:101D8100002BF030A3079000327401F02220A3054C
:061D9100E4900032F02294
:1018FF0090002AE0FF7E0064017019A3E0700204DB
:10190F00F0900032E070047D0180027D0090003283
:10191F00EDF08054EF64024E701620A41190002B4E
:10192F00E070047F0180027F0090002BEFF0803881
:10193F0090002AE0FF7E006403700E90002D04F0EB
:10194F00E4A3F0900034F08020EF64044E701E90FA
:10195F000033E0FFA3F090002D7401F0A304F0EF2B
:0E196F00FD7C00E4FF121C6AE490002AF022C6
:0300230002197D42
:10197D00C0E0C0F0C083C082C0D075D000C000C030
:10198D0001C002C003C004C005C006C007309839AD
:10199D00C298900035E599F0E0FF24FE60121460C6
:1019AD001714601C2403701E90002A7401F0801619
:1019BD0090002A7402F0800E90002A7403F08006C5
:1019CD0090002A7404F0121E9BD007D006D005D0CB
:1019DD0004D003D002D001D000D0D0D082D083D09B
:0419ED00F0D0E03224
:10126000E4FF121B53900034EFF0FB7A0090002053
:101270007402F0A37410F0E4FD7F6E1216027FACCE
:10128000121876EF25E025E090002CF0FB7A009014
:1012900000207402F0A37410F0E4FD7F1712160210
:1012A000900034E0FF90002CE0C39F7BFF50067A53
:1012B0001A79CE80047A1A79D49000217410F07DC6
:1012C00002E4FF121A582084087BFF7A1A79DA8028
:1012D000093084137BFF7A1A79DF9000217410F0B3
:1012E0007D027F5E121A5890002BE0640170087B2B
:1012F000FF7A1A79E4800C90002BE070137BFF7A60
:101300001A79EB9000217410F07D04E4FF121A5852
:10131000900032E0640170087BFF7A1A79F2800C49
:10132000900032E070137BFF7A1A79FB90002174F1
:1013300010F07D047F3F121A5890002FE064017076
:10134000087BFF7A1B7904800C90002FE070137BE0
:10135000FF7A1B790B9000217410F07D06E4FF12D8
:031360001A5822F6
:0A1CF700EF1FAC0670011E4C601FC9
:101D010000000090001C740BF0A374BEF090001D45
:0D1D1100E014F070F890001CE014F070F089
:031D1E0080D72249
:101E3600000000000000000000000000000000009C
:011E4600009B
:101DD30075985043878053890F438920758BFA7513
:0B1DE3008DFAC2ABD28ED2AFD2AC2280
:0C1E9B00C2AC8F993099FDC299D2AC22E4
:10000E00120C7BFF600C121E9B740129F9E43AFA64
:03001E0080EE224F
:08153600900041EEF0A3EFF07C
:10153E0078437C007D017BFF7A1E79367E007F0624
:10154E00120C55900041E0FEA3E0FFC3EE648094C0
:10155E00805011C3E49FFFE49E900041F0A3EFF092
:10156E007F2D80027F2B121E9B900041E0FAA3E09C
:10157E00FB7C277D10FFAE02120D287C007D0A1227
:10158E000D28ED2430A3F07C037DE8AF03AE0212EC
:10159E000D287C007D0A120D28ED2430A3F090005A
:1015AE0041A3E07C007D64FFAE02120D287C007D1D
:1015BE000A120D28ED2430900045F07C007D0AAF14
:1015CE0003AE02120D287C007D0A120D28ED243088
:1015DE00A3F0900041E0FEA3E0FF7C007D0A120D17
:1015EE0028ED2430900047F0E4A3F07B017A0079D7
:0415FE004302000E96
:060DBF00900000120D82FD
:100DC50078047C007D017BFF7A1E793C7E007F0BD9
:100DD500120C5590000F7401F0A3120D8E00000047
:100DE50001E4900014F0A3F0A3F0A3F0A3120D8E7C
:100DF50000000000E4FFFEFDFC900000E0F8A3E029
:100E0500F9A3E0FAA3E0FB120A3C501B900000E0B6
:100E1500FCA3E0FDA3E0FEA3E0FF120AB5900000ED
:100E2500120D827F2D80027F2B121E9B900000E009
:100E3500FCA3E0FDA3E0FEA3E0FF120B0490001469
:100E4500EEF0A3EFF0900014E0FCA3E0FDE4120A3D
:100E5500CBA804A905AA06AB07900000E0FCA3E017
:100E6500FDA3E0FEA3E0FF120841900018120D82D9
:100E75007F007E407D1C7C46900018E0F8A3E0F9D9
:100E8500A3E0FAA3E0FB120936120B04900016EE5C
:100E9500F0A3EFF0900014E0FAA3E0FB7C277D10AF
:100EA500FFAE02120CD37C007D0A120CD3ED243068
:100EB500900004F07C037DE8AF03AE02120CD37CF6
:100EC500007D0A120CD3ED2430A3F0900014A3E0AA
:100ED5007C007D64FFAE02120CD37C007D0A120CEF
:100EE500D3ED2430900006F07C007D0AAF03AE02FE
:100EF500120CD37C007D0A120CD3ED2430A3F090A4
:100F05000014E0FEA3E0FF7C007D0A120CD3ED2463
:100F150030900008F0A3742EF0900016E0FAA3E0DC
:100F2500FB7C037DE8FFAE02120CD37C007D0A1228
:100F35000CD3ED243090000AF07C007D64AF03AE45
:100F450002120CD37C007D0A120CD3ED2430A3F0E1
:100F5500900016A3E07C007D0AFFAE02120CD37C44
:100F6500007D0A120CD3ED243090000CF07C007D3E
:100F75000AAF03AE02120CD3ED2430A3F0E4A3F0C4
:090F85007B017A00790402000EE0
:0B1EB300E490004DF07F14FE021CF7CD
:0D1E810090004D7404F07F147E00021CF7E9
:0D1E8E0090004D7401F07F147E00021CF7DF
:03000B000216BD1D
:1016BD00C0E0C0F0C083C082C0D075D000C000C0F3
:0D16CD0001C002C003C004C005C006C00774
:1016DA00758A33758CFE90004AE004F0700690001B
:1016EA0049E004F0900049E07004A3E06428700621
:1016FA00900049F0A3F090004DE0FFD390004AE03B
:10170A009F900049E094005004D2878002C28790DB
:10171A00004CE004F0700690004BE004F090004B9F
:10172A00E07004A3E06464700990004BF0A3F01227
:02173A00113468
:10173C00D007D006D005D004D003D002D001D00001
:0B174C00D0D0D082D083D0F0D0E032AB
:101E08005389F0438901758A33758CFEC28DD28C53
:071E1800D2AFD2A9C2B9222A
:1019F100E4FF7590FFC2902094027F102095027F32
:101A01000C2096027F082097027F047590FFC291F7
:101A11002094027F0F2095027F0B2096027F0720E2
:101A210097027F037590FFC2922094027F0E20954A
:101A3100027F0A2096027F062097027F027590FF9F
:101A4100C2932094027F0D2095027F092096027F88
:061A5100052097027F0151
:011A5700226C
:1011340090004FE090004EF01219F1A3EFF09000F0
:101144004EE0FF7E0064017008A3E07004A304F085
:1011540022EF4E700D90004FE064027005A37402FC
:10116400F02290004EE0700BA3E064037005A374BA
:1011740003F02290004EE0FF7E00700BA3E06404B5
:101184007005A37404F022EF4E700D90004FE064DC
:10119400057005A37405F02290004EE0700BA3E0E7
:1011A40064067005A37406F02290004EE0FF7E00F2
:1011B400700BA3E064077005A37407F022EF4E7070
:1011C4000D90004FE064087005A37408F0229000AD
:1011D4004EE0700BA3E064097005A37409F022903B
:1011E400004EE0FF7E00700BA3E0640A7005A37458
:1011F4000AF022EF4E700D90004FE0640B7005A3CF
:10120400740BF02290004EE0700BA3E0640C7005A8
:10121400A3740CF02290004EE0FF7E00700BA3E05C
:10122400640D7005A3740DF022EF4E700D90004F05
:10123400E0640E7005A3740EF02290004EE0700B73
:10124400A3E0640F7005A3740FF02290004EE070C9
:0B1254000AA3E064107004A37410F003
:01125F00226C
:07000300900050E0FFE4F063
:01000A0022D3
:02187600AD07BC
:10187800E490001CF0A3F0C2B6C2B5FBEBC3940819
:101888007480948050237E007480A803088006CE5C
:10189800A2E713CE13D8F8FFEDF582EF558224FFA7
:1018A80092B4D2B6C2B60B80D3E4FBEBC3941074E7
:1018B8008094805024D2B6C2B630B71A7E80E4A88D
:1018C80003088005CEC313CE13D8F9FF90001CE09F
:1018D8004EF0A3E04FF00B80D2D2B5ED90001C3053
:1018E800E305E0FF7E0022E0C4F854F0C868FEA3D8
:0618F800E0C4540F48FF9C
:0118FE0022C7
:101C6A0090001CEFF0A3ECF0A3EDF0121EC87FA0C9
:101C7A00121C38121EA790001CE0FF121C38121EFC
:101C8A00A790001DA3E0FF121C38121EA7021EDA3D
:051B530090001CEFF002
:101B5800121EC87FA0121C38121EA790001CE0FF9E
:101B6800121C38121EA7121EC87FA1121C38121E82
:101B7800A7121D4A90001DEFF07F01121EBE121E13
:061B8800DA90001DE0FFF1
:011B8E002234
:091EC800D2A1D2A0C2A0C2A12245
:071EDA00C2A0D2A1D2A02298
:021C3800AD07F6
:101C3A00E4FBEBC394087480948050237E00748084
:101C4A00A803088006CEA2E713CE13D8F8FFEDF555
:0F1C5A0082EF558224FF92A0D2A1C2A10B80D3AA
:011C69002258
:101D4A00E4FFD2A0FEEEC39408748094805017D2A8
:101D5A00A130A00DA8067480088002C313D8FC4FD6
:061D6A00FFC2A10E80DFA4
:011D70002250
:0A1EBE00EF24FF92A0D2A1C2A122DE
:0B1EA700D2A0D2A1A2A0E433FFC2A190
:011EB200220D
:100026000000000000000000002F00000000070094
:10003600070000147F147F1400242A7F2A1200620E
:1000460064081323003649552250000005030000BA
:1000560000001C224100000041221C000014083E42
:1000660008140008083E0808000000A06000000808
:10007600080808080000606000000020100804025C
:10008600003E5149453E0000427F4000004261511A
:100096004946002141454B31001814127F100027B4
:1000A60045454539003C4A49493000017109050377
:1000B60000364949493600064949291E00003636A8
:1000C600000000005636000000081422410000140B
:1000D60014141414000041221408000201510906E8
:1000E60000324959513E007C1211127C007F494969
:1000F6004936003E41414122007F4141221C007F9A
:1001060049494941007F09090901003E4149497AA7
:10011600007F0808087F0000417F41000020404121
:100126003F01007F08142241007F40404040007F8D
:10013600020C027F007F0408107F003E4141413ED1
:10014600007F09090906003E4151215E007F091919
:1001560029460046494949310001017F0101003F16
:100166004040403F001F2040201F003F4038403F96
:1001760000631408146300070870080700615149FA
:10018600454300007F41410000552A552A5500008D
:1001960041417F000004020102040040404040400B
:1001A600000001020400002054545478007F4844A3
:1001B600443800384444442000384444487F0038DA
:1001C6005454541800087E0901020018A4A4A47C03
:1001D600007F080404780000447D400000408084CD
:1001E6007D00007F102844000000417F4000007C15
:1001F60004180478007C0804047800384444443821
:1002060000FC242424180018242418FC007C08046C
:10021600040800485454542000043F444020003C45
:100226004040207C001C2040201C003C4030403CCC
:10023600004428102844001CA0A0A07C004464545C
:100246004C441414141414140000000000000000A0
:100256000000000000000000000000F800000000A0
:10026600000000333000000000100C06100C0600E1
:10027600000000000000000040C07840C078400048
:10028600043F04043F040400007088FC08300000AA
:10029600001820FF211E0000F008F000E018000002
:1002A60000211C031E211E0000F0088870000000BB
:1002B6001E2123241927211010160E00000000000D
:1002C6000000000000000000000000E0180402002A
:1002D600000000071820400000020418E00000009B
:1002E6000040201807000000404080F08040400099
:1002F6000202010F01020200000000F000000000EF
:100306000101011F010101000000000000000000C2
:1003160080B0700000000000000000000000000037
:1003260000010101010101010000000000000000C0
:10033600003030000000000000000000806018045B
:10034600006018060100000000E010080810E00038
:10035600000F102020100F00001010F80000000001
:100366000020203F20200000007008080888700048
:1003760000302824222130000030088888483000C8
:100386000018202020110E000000C02010F80000E8
:1003960000070424243F240000F808888808080081
:1003A6000019212020110E0000E010888818000096
:1003B600000F112020110E0000380808C838080068
:1003C6000000003F000000000070880808887000E8
:1003D600001C222121221C0000E010080810E00069
:1003E6000000312222110F00000000C0C0000000F2
:1003F6000000003030000000000000800000000017
:10040600000080600000000000008040201008000E
:1004160000010204081020004040404040404000D7
:1004260004040404040404000008102040800000B2
:100436000020100804020100007048080808F000B7
:100446000000003036010000C030C828E810E00087
:100456000718272423140B000000C038E000000012
:10046600203C23020227382008F88888887000007C
:10047600203F202020110E00C03008080808380050
:10048600071820202010080008F808080810E000C7
:10049600203F202020100F0008F88888E808100068
:1004A600203F20202320180008F88888E80810003C
:1004B600203F200003000000C03008080838000074
:1004C60007182020221E020008F808000008F80875
:1004D600203F210101213F20000808F808080000FC
:1004E6000020203F2020000000000808F80808002F
:1004F600C08080807F00000008F888C028180800A7
:10050600203F20012638200008F8080000000000DF
:10051600203F20202020300008F8F800F8F80800D6
:10052600203F003F003F200008F830C00008F808D0
:10053600203F200007183F00E01008080810E000E0
:100546000F10202020100F0008F808080808F000F7
:10055600203F210101010000E01008080810E0001A
:100566000F18242438504F0008F8888888887000AF
:10057600203F2000030C302000708808080838004F
:100586000038202121221C00180808F80808180045
:100596000000203F2000000008F808000008F808C6
:1005A600001F202020201F000878880000C8380877
:1005B600000007380E010000F80800F80008F800EF
:1005C600033C0700073C0300081868808068180889
:1005D60020302C03032C30200838C800C838080007
:1005E6000000203F2000000010080808C838080056
:1005F6002038262120201800000000FE02020200FA
:100606000000007F40404000000C30C000000000A9
:10061600000000010638C00000020202FE000000D1
:10062600004040407F000000000004020202040077
:1006360000000000000000000000000000000000B4
:10064600808080808080808000020204000000009C
:100656000000000000000000000080808080000094
:100666000019242222223F2008F800808000000082
:10067600003F112020110E00000000808080000045
:10068600000E112020201100000000808088F80054
:10069600000E112020103F20000080808080000086
:1006A600001F222222221300008080F088888818EA
:1006B6000020203F202000000000808080808000F5
:1006C600006B94949493600008F80080808000008A
:1006D600203F210000203F20008098980000000065
:1006E6000020203F20200000000000809898000095
:1006F60000C08080807F000008F8000080808000B5
:10070600203F24022D302000000808F800000000D9
:100716000020203F20200000808080808080800094
:10072600203F20003F20003F808000808080000026
:10073600203F210000203F200000808080800000B4
:10074600001F202020201F008080008080000000E5
:1007560080FFA12020110E00000000808080800014
:10076600000E112020A0FF80808080008080800005
:1007760020203F2120000100000080808080800032
:100786000033242424241900008080E080800000A7
:100796000000001F202000008080000000808000F4
:1007A600001F202020103F20808080000080808055
:1007B60000010E30080601008080008000808080E5
:1007C6000F300C030C300F0000808000808080000A
:1007D6000020312E0E312000808080000080808035
:1007E60080818E70180601000080808080808000E5
:1007F6000021302C2221300000000000807C020203
:1008060000000000003F404000000000FF00000024
:1008160000000000FF0000000002027C80000000D3
:100826000040403F000000000006010102020404EF
:080836000000000000000000BA
:091ED100D281D280C280C28122BC
:071EE100D281C280D28022F1
:0B1E4700121CA1121E52AF04121CA1BD
:051E5200D281C28122D3
:071C9A00AC07121ED17F7898
:101CA100C281E4FEEEC3940874809480501AAD079B
:101CB100ED548064807004D2808002C280EF25E000
:081CC100FFD281C2810E80DC1C
:011CC90022F8
:0E1E5700121C9A121E52E4FF121E47021EE1D8
:0E1E6500121C9A121E527F40121E47021EE1EE
:101CCA00EF24B0FFEE33FEE4FDFC121CE67F02E4D3
:0C1CDA00FDFCFE121CE67F10E4FDFCFE89
:101CE600AB07AA06ED4C6003021E65AF03121E5732
:011CF60022CB
:051B1200900051EFF00E
:101B1700E4F9E9FF7E00C3940874809480502C1286
:101B27001CCAE4900052F0900052E0C39480748085
:101B370094805014900051E0FF7E007D017C0012DC
:0B1B47001CE6A3E004F080DF0980C76B
:011B52002270
:101D9700D3EF9400EE940040147D657C18ED1D7020
:0D1DA700011CED4C70F7EF1F70E61E80E38D
:011DB400220C
:101DEE00EF1FAA0670011E4A600FE4FDEDC3947B3F
:091DFE007480948050EA0D80F31A
:011E070022B8
:081B8F00900025E0FFA3E0FD3A
:101B9700A907ED24B0FFE433FEE4FDFC121CE6E9DF
:101BA700240254F0C4540F7E004410FFE4FDFC12DD
:101BB7001CE6E92402FF7E00EF540FFFE4FDFC0260
:021BC7001CE61A
:101E1F007F8D121CE2E4FDFC7F14FE121CE6E4FD34
:071E2F00FC7FAFFE021CE680
:0E1E73007F8D121CD9E4FDFC7FAEFE021CE642
:101C0100E4F9E9FF7E00C3940874809480502712A0
:101C11001CCAE490001CF090001CE0C39480748006
:101C21009480500F7D017C00E4FFFE121CE6E0046D
:061C3100F080E40980CC04
:011C3700228A
:101BC900E4F9E9FF7E00C3940874809480502812D8
:101BD9001CCAE4900053F0900053E0C394807480D1
:101BE900948050107D017C007F017E00121CE6E08C
:071BF90004F080E30980CB3A
:011C000022C1
:0B136300900026EDF0900025EFF0FD5B
:10136E00E4900029F0F9EB24E0F0EDD3947F748043
:10137E009480400AE4900025F0A3E02402F090004F
:10138E0028E064106003021414121B8FE4F9E9C301
:10139E00940874809480502B900029E075F010A46E
:1013AE0029F582E435F0F583E582244EF582E58356
:1013BE003402F583E493FF7E007D017C00121CE66F
:1013CE000980CB900025E0FFA3E004FD121B97E4FB
:1013DE00F9E9C39408748094805065900029E075F3
:1013EE00F010A429F582E435F0F583E5822456F554
:1013FE0082E5833402F583E493FF7E007D017C0059
:10140E00121CE60980CB121B8FE4F9E9C394067413
:10141E00809480502B900029E075F006A42426F5C8
:10142E0082E5F03400F583E58229F582E43583F513
:10143E0083E493FF7E007D017C00121CE60980CBC5
:01144E00227B
:071DB500900025EFF0A905E5
:101DBC007F017E00AD0119ED600C900025E0FD7CEB
:061DCC0000120CC180EEC4
:011DD20022EE
:0E16020090001CEFF0A3EDF0A3EAF0A3EBF0D4
:10161000E4900024F0900022F0900020E0FF900081
:1016200022E0FEC39F40030216BCC3EF9E14FD7F61
:101630000A121DB590001EE0FCA3E0FDCFCDCFCE79
:10164000CCCE120CD37C007D0A120CD3900023ED7B
:10165000F0A3E07036900020E014FF900022E0FE3E
:10166000C39F5027A3E0701D900021E0FCC3138EA0
:10167000F0A4FF90001CE02FFFA3E0FD900028ECF9
:10168000F07B20802B9000247401F0900021E0FE7C
:10169000C313FFA3E0FDEF8DF0A4FF90001CE02F2B
:1016A000FFA3E0FD900023E02430FB900028EEF043
:0C16B000121363900022E004F0021619EF
:0116BC00220B
:101A580090001CEFF0A3EDF0A3EBF0A3EAF0A3E9EC
:011A6800F08D
:101A6900E4900022F090001EE0FBA3E0FAA3E0F965
:101A7900900022E0F582758300120C94FB6033908C
:101A8900001CE0FFA3E0FD900021E0900028F01287
:101A9900136390001CE02408F0E0D39478748094D8
:101AA900804007E4F0A3E02402F0900022E004F073
:021AB90080B3F8
:011ABB002208
:0A175700900036EFF0900038EBF040
:10176100E490003DF0A3F0900039E0FF54077008C9
:10177100EF131313541F800A900039E0131313540D
:101781001F04900040F0900040EDF0900039E0FF20
:10179100900040E0FDC39F504F900036E0FF121BC8
:1017A10097E090003FF0900038E0FF90003FE0C3E9
:1017B1009F502D90003AE0FBA3E0FAA3E0F9A3E4E7
:1017C10075F001120D5E85F082F583120C94FF7E97
:1017D100007D017C00121CE690003FE004F080C611
:0817E100900040E004F080A339
:0117E90022DD
:10144F00E4FDFC7FAEFE121CE6E4FDFCFF121CDC8B
:10145F00E4FDFC7F40FE121CE6E4FDFC7FB0FE12B3
:10146F001CE6E4FDFC7F81FE121CE6E4FDFC7FFF21
:10147F00FE121CE6E4FDFC7FA1FE121CE6E4FDFC5F
:10148F007FA6FE121CE6E4FDFC7FA8FE121CE6E41C
:10149F00FDFC7F3FFE121CE6E4FDFC7FC8FE121C24
:1014AF00E6E4FDFC7FD3FE121CE6E4FDFCFFFE121A
:1014BF001CE6E4FDFC7FD5FE121CE6E4FDFC7F80FC
:1014CF00FE121CE6E4FDFC7FD8FE121CE6E4FDFCD8
:1014DF007F05FE121CE6E4FDFC7FD9FE121CE6E43C
:1014EF00FDFC7FF1FE121CE6E4FDFC7FDAFE121C10
:1014FF00E6E4FDFC7F12FE121CE6E4FDFC7FDBFE42
:10150F00121CE6E4FDFC7F30FE121CE6E4FDFC7FBE
:10151F008DFE121CE6E4FDFC7F14FE121CE6E4FDBA
:07152F00FC7FAFFE021CE689
:10083E00020B70E86480F8E933E83360110460F06D
:10084E00ED33EC337009E8FCE9FDEAFEEBFF220420
:10085E0060DED3EB9FEA9EE99DE8C2E78CF0C2F71B
:10086E0095F0400CE8CCF8E9CDF9EACEFAEBCFFBE7
:10087E00120B3B85D0F05804700320D5B3E80470FA
:10088E00075002B2D5020B7A92D5EC0460F7E4CC95
:10089E00C0E0C398F8603B94186008400DD0E0FBB0
:1008AE00020B52E4FBFAC9FC8028E830E406E4C9E6
:1008BE00FBE4CAFCE830E305E4C9CACBFCE8540704
:1008CE006010F8C3E913F9EA13FAEB13FBEC13FC0F
:1008DE00D8F130F52FC3E49CFCEF9BFFEE9AFEEDB2
:1008EE0099FDD0E0FBEF4E4D4C701222DB03020B54
:1008FE0077EC2CFCEF33FFEE33FEED33FDED30E7FE
:10090E00EB020B52EF2BFFEE3AFEED39FDD0E0FB82
:10091E0050130BBB0003020B7AED13FDEE13FEEF2B
:08092E0013FFEC13FC020B5255
:10093600EC4D6011E8497017ED33EC3304600DE4BB
:10094600FCFFFEFD22E933E8330470F8020B701257
:100956000B3B58046009E4CC248150062850090258
:100966000B7A284003020B77C0E0EB4A7044B9804B
:1009760006D0E0FB020B66EF4E701CBD8008EBFF55
:10098600EAFEE9FD80EBE98DF0A4FEE5F0020A1F20
:10099600E9CDF9EAFEEBFFEF89F0A4FCE5F0CE899C
:1009A600F0A42EFFE435F0CD89F0A42DFEE435F059
:1009B6008067EF4E7005BD80D780C3EF8BF0A4AC87
:1009C600F0EE8BF0A42CFCE435F0F8EF8AF0A42CC2
:1009D600E5F038FCE433CB8DF0A42CFCE5F03BF8D5
:1009E600EE8AF0A42CFCE5F038F8E433CF89F0A4C5
:1009F6002CFCE5F038CF3400CE89F0A42FFFE5F0CB
:100A06003EFEE433C98DF0A42EFEE5F039CD8AF022
:100A1600A42FFFE5F03EFEE43DFD33D0E0FB50079A
:100A26000BBB000F020B7AEC2CFCEF33FFEE33FE10
:060A3600ED33FD020B523E
:100A3C0074F8CC6480CCC86480C8F58204604FC361
:100A4C00EB9FF5F0EA9E42F0E99D42F0E89C45F000
:100A5C00603C501DE5825FFFE582D313CB5BCBF48A
:100A6C002B5582FB50280ABA002409B900200880B3
:100A7C001DE5825BFBE582D313CF5FCFF4C3132F4D
:100A8C005582FF50090EBE00050DBD00010CC3EBD5
:100A9C009FF5F0EA9E42F0E99D42F0E89C45F0603B
:090AAC0007CC4820E701B3EC225D
:100AB500ED33EC33600A047003BD8004ECB2E7FC4F
:010AC500220E
:100AC60075F020800E75F010800575F0087D007EAB
:100AD600007F003392D530D503120D74EC334010ED
:100AE600EF33FFEE33FEED33FDEC33FCD5F0ED22B4
:0E0AF600E5F0247EA2D513CC92E7CDCEFF22F0
:100B0400EDD2E7CD33EC3392D524814006E4FFFEE9
:100B1400FDFC22FCE4CFCECDCC24E0501174FF8048
:100B2400EDC3CC13CCCD13CDCE13CECF13CF0470E5
:070B3400F030D5DE020D7464
:100B3B00E9D2E7C933E833F892D5EDD2E7CD33EC00
:070B4B0033FC5002B2D52279
:100B5200EC30E7100FBF000C0EBE00080DBD000404
:100B62000BEB6014A2D5EB13FCED92E7FD2274FFB0
:100B7200FCFDFEFF22E480F8A2D574FF13FC7D8009
:030B8200E480EF1D
:030000000217EAFA
:0C17EA00787FE4F6D8FD75810702183105
:100B8500E709F608DFFA8046E709F208DFFA803E52
:100B950088828C83E709F0A3DFFA8032E309F6083F
:100BA500DFFA8078E309F208DFFA807088828C83A7
:100BB500E309F0A3DFFA806489828A83E0A3F6085B
:100BC500DFFA805889828A83E0A3F208DFFA804C35
:100BD50080D280FA80C680D4806980F2803380100C
:100BE50080A680EA809A80A880DA80E280CA803375
:100BF50089828A83ECFAE493A3C8C582C8CCC583ED
:100C0500CCF0A3C8C582C8CCC583CCDFE9DEE780BC
:100C15000D89828A83E493A3F608DFF9ECFAA9F03B
:100C2500EDFB2289828A83ECFAE0A3C8C582C8CC91
:100C3500C583CCF0A3C8C582C8CCC583CCDFEADEAA
:100C4500E880DB89828A83E493A3F208DFF980CC0C
:100C550088F0EF60010E4E60C388F0ED2402B40405
:100C65000050B9F582EB2402B4040050AF232345AC
:060C75008223900BD573F1
:100C7B00BB010689828A83E0225002E722BBFE0277
:090C8B00E32289828A83E49322AA
:100C9400BB010CE58229F582E5833AF583E0225015
:100CA40006E92582F8E622BBFE06E92582F8E2225F
:0D0CB400E58229F582E5833AF583E4932279
:100CC100EF8DF0A4A8F0CF8CF0A428CE8DF0A42E47
:020CD100FE2201
:100CD300BC000BBE0029EF8DF084FFADF022E4CC05
:100CE300F875F008EF2FFFEE33FEEC33FCEE9DECCE
:100CF300984005FCEE9DFE0FD5F0E9E4CEFD22ED14
:100D0300F8F5F0EE8420D21CFEADF075F008EF2F5D
:100D1300FFED33FD4007985006D5F0F222C398FD4E
:050D23000FD5F0EA22EB
:100D2800C2D5EC30E709B2D5E4C39DFDE49CFCEEE6
:100D380030E715B2D5E4C39FFFE49EFE120CD3C37F
:100D4800E49DFDE49CFC8003120CD330D507C3E47A
:060D58009FFFE49EFE2255
:100D5E00A3F8E0C5F025F0F0E58215827002158348
:060D6E00E0C838F0E822A5
:0E0D7400C3E49FFFE49EFEE49DFDE49CFC2290
:0C0D8200ECF0A3EDF0A3EEF0A3EFF022E4
:100D8E00A8828583F0D083D082120DA5120DA512F4
:100D9E000DA5120DA5E473E493A3C583C5F0C58319
:100DAE00C8C582C8F0A3C583C5F0C583C8C582C8AF
:010DBE002212
:1017F600020F8EE493A3F8E493A34003F68001F26C
:1018060008DFF48029E493A3F85407240CC8C333F3
:10181600C4540F4420C8834004F456800146F6DFC2
:10182600E4800B0102040810204080901D21E47E14
:10183600019360BCA3FF543F30E509541FFEE493B7
:10184600A360010ECF54C025E060A840B8E493A37E
:10185600FAE493A3F8E493A3C8C582C8CAC583CAA9
:10186600F0A3C8C582C8CAC583CADFE9DEE780BE61
:011D49000099
:00000001FF
